{
	"contracts/Classwork.sol": {
		"SaveERC20": {
			"abi": [
				{
					"inputs": [
						{
							"internalType": "address",
							"name": "_savingToken",
							"type": "address"
						}
					],
					"stateMutability": "nonpayable",
					"type": "constructor"
				},
				{
					"anonymous": false,
					"inputs": [
						{
							"indexed": false,
							"internalType": "address",
							"name": "sender",
							"type": "address"
						},
						{
							"indexed": false,
							"internalType": "uint256",
							"name": "amount",
							"type": "uint256"
						}
					],
					"name": "SavingSuccessful",
					"type": "event"
				},
				{
					"anonymous": false,
					"inputs": [
						{
							"indexed": false,
							"internalType": "address",
							"name": "receiver",
							"type": "address"
						},
						{
							"indexed": false,
							"internalType": "uint256",
							"name": "amount",
							"type": "uint256"
						}
					],
					"name": "WithdrawSuccessful",
					"type": "event"
				},
				{
					"inputs": [],
					"name": "checkContractBalance",
					"outputs": [
						{
							"internalType": "uint256",
							"name": "",
							"type": "uint256"
						}
					],
					"stateMutability": "view",
					"type": "function"
				},
				{
					"inputs": [
						{
							"internalType": "address",
							"name": "_user",
							"type": "address"
						}
					],
					"name": "checkUserBalance",
					"outputs": [
						{
							"internalType": "uint256",
							"name": "",
							"type": "uint256"
						}
					],
					"stateMutability": "view",
					"type": "function"
				},
				{
					"inputs": [
						{
							"internalType": "uint256",
							"name": "_amount",
							"type": "uint256"
						}
					],
					"name": "deposit",
					"outputs": [],
					"stateMutability": "nonpayable",
					"type": "function"
				},
				{
					"inputs": [
						{
							"internalType": "uint256",
							"name": "_amount",
							"type": "uint256"
						}
					],
					"name": "ownerWithdraw",
					"outputs": [],
					"stateMutability": "nonpayable",
					"type": "function"
				},
				{
					"inputs": [
						{
							"internalType": "uint256",
							"name": "_amount",
							"type": "uint256"
						}
					],
					"name": "withdraw",
					"outputs": [],
					"stateMutability": "nonpayable",
					"type": "function"
				}
			],
			"devdoc": {
				"kind": "dev",
				"methods": {},
				"version": 1
			},
			"evm": {
				"assembly": "    /* \"contracts/Classwork.sol\":80:1977  contract SaveERC20 {... */\n  mstore(0x40, 0x80)\n    /* \"contracts/Classwork.sol\":317:422  constructor(address _savingToken) {... */\n  callvalue\n  dup1\n  iszero\n  tag_1\n  jumpi\n  0x00\n  dup1\n  revert\ntag_1:\n  pop\n  mload(0x40)\n  sub(codesize, bytecodeSize)\n  dup1\n  bytecodeSize\n  dup4\n  codecopy\n  dup2\n  dup2\n  add\n  0x40\n  mstore\n  dup2\n  add\n  swap1\n  tag_2\n  swap2\n  swap1\n  tag_3\n  jump\t// in\ntag_2:\n    /* \"contracts/Classwork.sol\":375:387  _savingToken */\n  dup1\n    /* \"contracts/Classwork.sol\":361:372  savingToken */\n  0x00\n  dup1\n    /* \"contracts/Classwork.sol\":361:387  savingToken = _savingToken */\n  0x0100\n  exp\n  dup2\n  sload\n  dup2\n  0xffffffffffffffffffffffffffffffffffffffff\n  mul\n  not\n  and\n  swap1\n  dup4\n  0xffffffffffffffffffffffffffffffffffffffff\n  and\n  mul\n  or\n  swap1\n  sstore\n  pop\n    /* \"contracts/Classwork.sol\":405:415  msg.sender */\n  caller\n    /* \"contracts/Classwork.sol\":397:402  owner */\n  0x01\n  0x00\n    /* \"contracts/Classwork.sol\":397:415  owner = msg.sender */\n  0x0100\n  exp\n  dup2\n  sload\n  dup2\n  0xffffffffffffffffffffffffffffffffffffffff\n  mul\n  not\n  and\n  swap1\n  dup4\n  0xffffffffffffffffffffffffffffffffffffffff\n  and\n  mul\n  or\n  swap1\n  sstore\n  pop\n    /* \"contracts/Classwork.sol\":317:422  constructor(address _savingToken) {... */\n  pop\n    /* \"contracts/Classwork.sol\":80:1977  contract SaveERC20 {... */\n  jump(tag_6)\n    /* \"#utility.yul\":88:205   */\ntag_8:\n    /* \"#utility.yul\":197:198   */\n  0x00\n    /* \"#utility.yul\":194:195   */\n  dup1\n    /* \"#utility.yul\":187:199   */\n  revert\n    /* \"#utility.yul\":334:460   */\ntag_10:\n    /* \"#utility.yul\":371:378   */\n  0x00\n    /* \"#utility.yul\":411:453   */\n  0xffffffffffffffffffffffffffffffffffffffff\n    /* \"#utility.yul\":404:409   */\n  dup3\n    /* \"#utility.yul\":400:454   */\n  and\n    /* \"#utility.yul\":389:454   */\n  swap1\n  pop\n    /* \"#utility.yul\":334:460   */\n  swap2\n  swap1\n  pop\n  jump\t// out\n    /* \"#utility.yul\":466:562   */\ntag_11:\n    /* \"#utility.yul\":503:510   */\n  0x00\n    /* \"#utility.yul\":532:556   */\n  tag_20\n    /* \"#utility.yul\":550:555   */\n  dup3\n    /* \"#utility.yul\":532:556   */\n  tag_10\n  jump\t// in\ntag_20:\n    /* \"#utility.yul\":521:556   */\n  swap1\n  pop\n    /* \"#utility.yul\":466:562   */\n  swap2\n  swap1\n  pop\n  jump\t// out\n    /* \"#utility.yul\":568:690   */\ntag_12:\n    /* \"#utility.yul\":641:665   */\n  tag_22\n    /* \"#utility.yul\":659:664   */\n  dup2\n    /* \"#utility.yul\":641:665   */\n  tag_11\n  jump\t// in\ntag_22:\n    /* \"#utility.yul\":634:639   */\n  dup2\n    /* \"#utility.yul\":631:666   */\n  eq\n    /* \"#utility.yul\":621:684   */\n  tag_23\n  jumpi\n    /* \"#utility.yul\":680:681   */\n  0x00\n    /* \"#utility.yul\":677:678   */\n  dup1\n    /* \"#utility.yul\":670:682   */\n  revert\n    /* \"#utility.yul\":621:684   */\ntag_23:\n    /* \"#utility.yul\":568:690   */\n  pop\n  jump\t// out\n    /* \"#utility.yul\":696:839   */\ntag_13:\n    /* \"#utility.yul\":753:758   */\n  0x00\n    /* \"#utility.yul\":784:790   */\n  dup2\n    /* \"#utility.yul\":778:791   */\n  mload\n    /* \"#utility.yul\":769:791   */\n  swap1\n  pop\n    /* \"#utility.yul\":800:833   */\n  tag_25\n    /* \"#utility.yul\":827:832   */\n  dup2\n    /* \"#utility.yul\":800:833   */\n  tag_12\n  jump\t// in\ntag_25:\n    /* \"#utility.yul\":696:839   */\n  swap3\n  swap2\n  pop\n  pop\n  jump\t// out\n    /* \"#utility.yul\":845:1196   */\ntag_3:\n    /* \"#utility.yul\":915:921   */\n  0x00\n    /* \"#utility.yul\":964:966   */\n  0x20\n    /* \"#utility.yul\":952:961   */\n  dup3\n    /* \"#utility.yul\":943:950   */\n  dup5\n    /* \"#utility.yul\":939:962   */\n  sub\n    /* \"#utility.yul\":935:967   */\n  slt\n    /* \"#utility.yul\":932:1051   */\n  iszero\n  tag_27\n  jumpi\n    /* \"#utility.yul\":970:1049   */\n  tag_28\n  tag_8\n  jump\t// in\ntag_28:\n    /* \"#utility.yul\":932:1051   */\ntag_27:\n    /* \"#utility.yul\":1090:1091   */\n  0x00\n    /* \"#utility.yul\":1115:1179   */\n  tag_29\n    /* \"#utility.yul\":1171:1178   */\n  dup5\n    /* \"#utility.yul\":1162:1168   */\n  dup3\n    /* \"#utility.yul\":1151:1160   */\n  dup6\n    /* \"#utility.yul\":1147:1169   */\n  add\n    /* \"#utility.yul\":1115:1179   */\n  tag_13\n  jump\t// in\ntag_29:\n    /* \"#utility.yul\":1105:1179   */\n  swap2\n  pop\n    /* \"#utility.yul\":1061:1189   */\n  pop\n    /* \"#utility.yul\":845:1196   */\n  swap3\n  swap2\n  pop\n  pop\n  jump\t// out\n    /* \"contracts/Classwork.sol\":80:1977  contract SaveERC20 {... */\ntag_6:\n  dataSize(sub_0)\n  dup1\n  dataOffset(sub_0)\n  0x00\n  codecopy\n  0x00\n  return\nstop\n\nsub_0: assembly {\n        /* \"contracts/Classwork.sol\":80:1977  contract SaveERC20 {... */\n      mstore(0x40, 0x80)\n      callvalue\n      dup1\n      iszero\n      tag_1\n      jumpi\n      0x00\n      dup1\n      revert\n    tag_1:\n      pop\n      jumpi(tag_2, lt(calldatasize, 0x04))\n      shr(0xe0, calldataload(0x00))\n      dup1\n      0x0a9bfef5\n      eq\n      tag_3\n      jumpi\n      dup1\n      0x2e1a7d4d\n      eq\n      tag_4\n      jumpi\n      dup1\n      0x33f707d1\n      eq\n      tag_5\n      jumpi\n      dup1\n      0x50312c9e\n      eq\n      tag_6\n      jumpi\n      dup1\n      0xb6b55f25\n      eq\n      tag_7\n      jumpi\n    tag_2:\n      0x00\n      dup1\n      revert\n        /* \"contracts/Classwork.sol\":1553:1664  function checkUserBalance(address _user) external view returns (uint256) {... */\n    tag_3:\n      tag_8\n      0x04\n      dup1\n      calldatasize\n      sub\n      dup2\n      add\n      swap1\n      tag_9\n      swap2\n      swap1\n      tag_10\n      jump\t// in\n    tag_9:\n      tag_11\n      jump\t// in\n    tag_8:\n      mload(0x40)\n      tag_12\n      swap2\n      swap1\n      tag_13\n      jump\t// in\n    tag_12:\n      mload(0x40)\n      dup1\n      swap2\n      sub\n      swap1\n      return\n        /* \"contracts/Classwork.sol\":1032:1547  function withdraw(uint256 _amount) external {... */\n    tag_4:\n      tag_14\n      0x04\n      dup1\n      calldatasize\n      sub\n      dup2\n      add\n      swap1\n      tag_15\n      swap2\n      swap1\n      tag_16\n      jump\t// in\n    tag_15:\n      tag_17\n      jump\t// in\n    tag_14:\n      stop\n        /* \"contracts/Classwork.sol\":1808:1975  function ownerWithdraw(uint256 _amount) external {... */\n    tag_5:\n      tag_18\n      0x04\n      dup1\n      calldatasize\n      sub\n      dup2\n      add\n      swap1\n      tag_19\n      swap2\n      swap1\n      tag_16\n      jump\t// in\n    tag_19:\n      tag_20\n      jump\t// in\n    tag_18:\n      stop\n        /* \"contracts/Classwork.sol\":1670:1802  function checkContractBalance() external view returns (uint256) {... */\n    tag_6:\n      tag_21\n      tag_22\n      jump\t// in\n    tag_21:\n      mload(0x40)\n      tag_23\n      swap2\n      swap1\n      tag_13\n      jump\t// in\n    tag_23:\n      mload(0x40)\n      dup1\n      swap2\n      sub\n      swap1\n      return\n        /* \"contracts/Classwork.sol\":428:1026  function deposit(uint256 _amount) external {... */\n    tag_7:\n      tag_24\n      0x04\n      dup1\n      calldatasize\n      sub\n      dup2\n      add\n      swap1\n      tag_25\n      swap2\n      swap1\n      tag_16\n      jump\t// in\n    tag_25:\n      tag_26\n      jump\t// in\n    tag_24:\n      stop\n        /* \"contracts/Classwork.sol\":1553:1664  function checkUserBalance(address _user) external view returns (uint256) {... */\n    tag_11:\n        /* \"contracts/Classwork.sol\":1617:1624  uint256 */\n      0x00\n        /* \"contracts/Classwork.sol\":1643:1650  savings */\n      0x02\n        /* \"contracts/Classwork.sol\":1643:1657  savings[_user] */\n      0x00\n        /* \"contracts/Classwork.sol\":1651:1656  _user */\n      dup4\n        /* \"contracts/Classwork.sol\":1643:1657  savings[_user] */\n      0xffffffffffffffffffffffffffffffffffffffff\n      and\n      0xffffffffffffffffffffffffffffffffffffffff\n      and\n      dup2\n      mstore\n      0x20\n      add\n      swap1\n      dup2\n      mstore\n      0x20\n      add\n      0x00\n      keccak256\n      sload\n        /* \"contracts/Classwork.sol\":1636:1657  return savings[_user] */\n      swap1\n      pop\n        /* \"contracts/Classwork.sol\":1553:1664  function checkUserBalance(address _user) external view returns (uint256) {... */\n      swap2\n      swap1\n      pop\n      jump\t// out\n        /* \"contracts/Classwork.sol\":1032:1547  function withdraw(uint256 _amount) external {... */\n    tag_17:\n        /* \"contracts/Classwork.sol\":1116:1117  0 */\n      0x00\n        /* \"contracts/Classwork.sol\":1094:1118  msg.sender != address(0) */\n      0xffffffffffffffffffffffffffffffffffffffff\n      and\n        /* \"contracts/Classwork.sol\":1094:1104  msg.sender */\n      caller\n        /* \"contracts/Classwork.sol\":1094:1118  msg.sender != address(0) */\n      0xffffffffffffffffffffffffffffffffffffffff\n      and\n      sub\n        /* \"contracts/Classwork.sol\":1086:1144  require(msg.sender != address(0), \"address zero detected\") */\n      tag_29\n      jumpi\n      mload(0x40)\n      0x08c379a000000000000000000000000000000000000000000000000000000000\n      dup2\n      mstore\n      0x04\n      add\n      tag_30\n      swap1\n      tag_31\n      jump\t// in\n    tag_30:\n      mload(0x40)\n      dup1\n      swap2\n      sub\n      swap1\n      revert\n    tag_29:\n        /* \"contracts/Classwork.sol\":1172:1173  0 */\n      0x00\n        /* \"contracts/Classwork.sol\":1162:1169  _amount */\n      dup2\n        /* \"contracts/Classwork.sol\":1162:1173  _amount > 0 */\n      gt\n        /* \"contracts/Classwork.sol\":1154:1203  require(_amount > 0, \"can't withdraw zero value\") */\n      tag_32\n      jumpi\n      mload(0x40)\n      0x08c379a000000000000000000000000000000000000000000000000000000000\n      dup2\n      mstore\n      0x04\n      add\n      tag_33\n      swap1\n      tag_34\n      jump\t// in\n    tag_33:\n      mload(0x40)\n      dup1\n      swap2\n      sub\n      swap1\n      revert\n    tag_32:\n        /* \"contracts/Classwork.sol\":1214:1233  uint256 _userSaving */\n      0x00\n        /* \"contracts/Classwork.sol\":1236:1243  savings */\n      0x02\n        /* \"contracts/Classwork.sol\":1236:1255  savings[msg.sender] */\n      0x00\n        /* \"contracts/Classwork.sol\":1244:1254  msg.sender */\n      caller\n        /* \"contracts/Classwork.sol\":1236:1255  savings[msg.sender] */\n      0xffffffffffffffffffffffffffffffffffffffff\n      and\n      0xffffffffffffffffffffffffffffffffffffffff\n      and\n      dup2\n      mstore\n      0x20\n      add\n      swap1\n      dup2\n      mstore\n      0x20\n      add\n      0x00\n      keccak256\n      sload\n        /* \"contracts/Classwork.sol\":1214:1255  uint256 _userSaving = savings[msg.sender] */\n      swap1\n      pop\n        /* \"contracts/Classwork.sol\":1289:1296  _amount */\n      dup2\n        /* \"contracts/Classwork.sol\":1274:1285  _userSaving */\n      dup2\n        /* \"contracts/Classwork.sol\":1274:1296  _userSaving >= _amount */\n      lt\n      iszero\n        /* \"contracts/Classwork.sol\":1266:1319  require(_userSaving >= _amount, \"insufficient funds\") */\n      tag_35\n      jumpi\n      mload(0x40)\n      0x08c379a000000000000000000000000000000000000000000000000000000000\n      dup2\n      mstore\n      0x04\n      add\n      tag_36\n      swap1\n      tag_37\n      jump\t// in\n    tag_36:\n      mload(0x40)\n      dup1\n      swap2\n      sub\n      swap1\n      revert\n    tag_35:\n        /* \"contracts/Classwork.sol\":1353:1360  _amount */\n      dup2\n        /* \"contracts/Classwork.sol\":1330:1337  savings */\n      0x02\n        /* \"contracts/Classwork.sol\":1330:1349  savings[msg.sender] */\n      0x00\n        /* \"contracts/Classwork.sol\":1338:1348  msg.sender */\n      caller\n        /* \"contracts/Classwork.sol\":1330:1349  savings[msg.sender] */\n      0xffffffffffffffffffffffffffffffffffffffff\n      and\n      0xffffffffffffffffffffffffffffffffffffffff\n      and\n      dup2\n      mstore\n      0x20\n      add\n      swap1\n      dup2\n      mstore\n      0x20\n      add\n      0x00\n      keccak256\n      0x00\n        /* \"contracts/Classwork.sol\":1330:1360  savings[msg.sender] -= _amount */\n      dup3\n      dup3\n      sload\n      tag_38\n      swap2\n      swap1\n      tag_39\n      jump\t// in\n    tag_38:\n      swap3\n      pop\n      pop\n      dup2\n      swap1\n      sstore\n      pop\n        /* \"contracts/Classwork.sol\":1399:1410  savingToken */\n      0x00\n      dup1\n      sload\n      swap1\n      0x0100\n      exp\n      swap1\n      div\n      0xffffffffffffffffffffffffffffffffffffffff\n      and\n        /* \"contracts/Classwork.sol\":1392:1420  IERC20(savingToken).transfer */\n      0xffffffffffffffffffffffffffffffffffffffff\n      and\n      0xa9059cbb\n        /* \"contracts/Classwork.sol\":1421:1431  msg.sender */\n      caller\n        /* \"contracts/Classwork.sol\":1433:1440  _amount */\n      dup5\n        /* \"contracts/Classwork.sol\":1392:1441  IERC20(savingToken).transfer(msg.sender, _amount) */\n      mload(0x40)\n      dup4\n      0xffffffff\n      and\n      0xe0\n      shl\n      dup2\n      mstore\n      0x04\n      add\n      tag_40\n      swap3\n      swap2\n      swap1\n      tag_41\n      jump\t// in\n    tag_40:\n      0x20\n      mload(0x40)\n      dup1\n      dup4\n      sub\n      dup2\n      0x00\n      dup8\n      gas\n      call\n      iszero\n      dup1\n      iszero\n      tag_43\n      jumpi\n      returndatasize\n      0x00\n      dup1\n      returndatacopy\n      revert(0x00, returndatasize)\n    tag_43:\n      pop\n      pop\n      pop\n      pop\n      mload(0x40)\n      returndatasize\n      not(0x1f)\n      0x1f\n      dup3\n      add\n      and\n      dup3\n      add\n      dup1\n      0x40\n      mstore\n      pop\n      dup2\n      add\n      swap1\n      tag_44\n      swap2\n      swap1\n      tag_45\n      jump\t// in\n    tag_44:\n        /* \"contracts/Classwork.sol\":1371:1485  require(... */\n      tag_46\n      jumpi\n      mload(0x40)\n      0x08c379a000000000000000000000000000000000000000000000000000000000\n      dup2\n      mstore\n      0x04\n      add\n      tag_47\n      swap1\n      tag_48\n      jump\t// in\n    tag_47:\n      mload(0x40)\n      dup1\n      swap2\n      sub\n      swap1\n      revert\n    tag_46:\n        /* \"contracts/Classwork.sol\":1501:1540  WithdrawSuccessful(msg.sender, _amount) */\n      0x84e742a3ea03623687a5febaa797636d728230721d4b3d1405d19fbbc16298d9\n        /* \"contracts/Classwork.sol\":1520:1530  msg.sender */\n      caller\n        /* \"contracts/Classwork.sol\":1532:1539  _amount */\n      dup4\n        /* \"contracts/Classwork.sol\":1501:1540  WithdrawSuccessful(msg.sender, _amount) */\n      mload(0x40)\n      tag_49\n      swap3\n      swap2\n      swap1\n      tag_41\n      jump\t// in\n    tag_49:\n      mload(0x40)\n      dup1\n      swap2\n      sub\n      swap1\n      log1\n        /* \"contracts/Classwork.sol\":1076:1547  {... */\n      pop\n        /* \"contracts/Classwork.sol\":1032:1547  function withdraw(uint256 _amount) external {... */\n      pop\n      jump\t// out\n        /* \"contracts/Classwork.sol\":1808:1975  function ownerWithdraw(uint256 _amount) external {... */\n    tag_20:\n        /* \"contracts/Classwork.sol\":1889:1894  owner */\n      0x01\n      0x00\n      swap1\n      sload\n      swap1\n      0x0100\n      exp\n      swap1\n      div\n      0xffffffffffffffffffffffffffffffffffffffff\n      and\n        /* \"contracts/Classwork.sol\":1875:1894  msg.sender == owner */\n      0xffffffffffffffffffffffffffffffffffffffff\n      and\n        /* \"contracts/Classwork.sol\":1875:1885  msg.sender */\n      caller\n        /* \"contracts/Classwork.sol\":1875:1894  msg.sender == owner */\n      0xffffffffffffffffffffffffffffffffffffffff\n      and\n      eq\n        /* \"contracts/Classwork.sol\":1867:1908  require(msg.sender == owner, \"not owner\") */\n      tag_51\n      jumpi\n      mload(0x40)\n      0x08c379a000000000000000000000000000000000000000000000000000000000\n      dup2\n      mstore\n      0x04\n      add\n      tag_52\n      swap1\n      tag_53\n      jump\t// in\n    tag_52:\n      mload(0x40)\n      dup1\n      swap2\n      sub\n      swap1\n      revert\n    tag_51:\n        /* \"contracts/Classwork.sol\":1926:1937  savingToken */\n      0x00\n      dup1\n      sload\n      swap1\n      0x0100\n      exp\n      swap1\n      div\n      0xffffffffffffffffffffffffffffffffffffffff\n      and\n        /* \"contracts/Classwork.sol\":1919:1947  IERC20(savingToken).transfer */\n      0xffffffffffffffffffffffffffffffffffffffff\n      and\n      0xa9059cbb\n        /* \"contracts/Classwork.sol\":1948:1958  msg.sender */\n      caller\n        /* \"contracts/Classwork.sol\":1960:1967  _amount */\n      dup4\n        /* \"contracts/Classwork.sol\":1919:1968  IERC20(savingToken).transfer(msg.sender, _amount) */\n      mload(0x40)\n      dup4\n      0xffffffff\n      and\n      0xe0\n      shl\n      dup2\n      mstore\n      0x04\n      add\n      tag_54\n      swap3\n      swap2\n      swap1\n      tag_41\n      jump\t// in\n    tag_54:\n      0x20\n      mload(0x40)\n      dup1\n      dup4\n      sub\n      dup2\n      0x00\n      dup8\n      gas\n      call\n      iszero\n      dup1\n      iszero\n      tag_56\n      jumpi\n      returndatasize\n      0x00\n      dup1\n      returndatacopy\n      revert(0x00, returndatasize)\n    tag_56:\n      pop\n      pop\n      pop\n      pop\n      mload(0x40)\n      returndatasize\n      not(0x1f)\n      0x1f\n      dup3\n      add\n      and\n      dup3\n      add\n      dup1\n      0x40\n      mstore\n      pop\n      dup2\n      add\n      swap1\n      tag_57\n      swap2\n      swap1\n      tag_45\n      jump\t// in\n    tag_57:\n      pop\n        /* \"contracts/Classwork.sol\":1808:1975  function ownerWithdraw(uint256 _amount) external {... */\n      pop\n      jump\t// out\n        /* \"contracts/Classwork.sol\":1670:1802  function checkContractBalance() external view returns (uint256) {... */\n    tag_22:\n        /* \"contracts/Classwork.sol\":1725:1732  uint256 */\n      0x00\n        /* \"contracts/Classwork.sol\":1758:1769  savingToken */\n      dup1\n      0x00\n      swap1\n      sload\n      swap1\n      0x0100\n      exp\n      swap1\n      div\n      0xffffffffffffffffffffffffffffffffffffffff\n      and\n        /* \"contracts/Classwork.sol\":1751:1780  IERC20(savingToken).balanceOf */\n      0xffffffffffffffffffffffffffffffffffffffff\n      and\n      0x70a08231\n        /* \"contracts/Classwork.sol\":1789:1793  this */\n      address\n        /* \"contracts/Classwork.sol\":1751:1795  IERC20(savingToken).balanceOf(address(this)) */\n      mload(0x40)\n      dup3\n      0xffffffff\n      and\n      0xe0\n      shl\n      dup2\n      mstore\n      0x04\n      add\n      tag_59\n      swap2\n      swap1\n      tag_60\n      jump\t// in\n    tag_59:\n      0x20\n      mload(0x40)\n      dup1\n      dup4\n      sub\n      dup2\n      dup7\n      gas\n      staticcall\n      iszero\n      dup1\n      iszero\n      tag_62\n      jumpi\n      returndatasize\n      0x00\n      dup1\n      returndatacopy\n      revert(0x00, returndatasize)\n    tag_62:\n      pop\n      pop\n      pop\n      pop\n      mload(0x40)\n      returndatasize\n      not(0x1f)\n      0x1f\n      dup3\n      add\n      and\n      dup3\n      add\n      dup1\n      0x40\n      mstore\n      pop\n      dup2\n      add\n      swap1\n      tag_63\n      swap2\n      swap1\n      tag_64\n      jump\t// in\n    tag_63:\n        /* \"contracts/Classwork.sol\":1744:1795  return IERC20(savingToken).balanceOf(address(this)) */\n      swap1\n      pop\n        /* \"contracts/Classwork.sol\":1670:1802  function checkContractBalance() external view returns (uint256) {... */\n      swap1\n      jump\t// out\n        /* \"contracts/Classwork.sol\":428:1026  function deposit(uint256 _amount) external {... */\n    tag_26:\n        /* \"contracts/Classwork.sol\":511:512  0 */\n      0x00\n        /* \"contracts/Classwork.sol\":489:513  msg.sender != address(0) */\n      0xffffffffffffffffffffffffffffffffffffffff\n      and\n        /* \"contracts/Classwork.sol\":489:499  msg.sender */\n      caller\n        /* \"contracts/Classwork.sol\":489:513  msg.sender != address(0) */\n      0xffffffffffffffffffffffffffffffffffffffff\n      and\n      sub\n        /* \"contracts/Classwork.sol\":481:539  require(msg.sender != address(0), \"address zero detected\") */\n      tag_66\n      jumpi\n      mload(0x40)\n      0x08c379a000000000000000000000000000000000000000000000000000000000\n      dup2\n      mstore\n      0x04\n      add\n      tag_67\n      swap1\n      tag_31\n      jump\t// in\n    tag_67:\n      mload(0x40)\n      dup1\n      swap2\n      sub\n      swap1\n      revert\n    tag_66:\n        /* \"contracts/Classwork.sol\":567:568  0 */\n      0x00\n        /* \"contracts/Classwork.sol\":557:564  _amount */\n      dup2\n        /* \"contracts/Classwork.sol\":557:568  _amount > 0 */\n      gt\n        /* \"contracts/Classwork.sol\":549:594  require(_amount > 0, \"can't save zero value\") */\n      tag_68\n      jumpi\n      mload(0x40)\n      0x08c379a000000000000000000000000000000000000000000000000000000000\n      dup2\n      mstore\n      0x04\n      add\n      tag_69\n      swap1\n      tag_70\n      jump\t// in\n    tag_69:\n      mload(0x40)\n      dup1\n      swap2\n      sub\n      swap1\n      revert\n    tag_68:\n        /* \"contracts/Classwork.sol\":670:677  _amount */\n      dup1\n        /* \"contracts/Classwork.sol\":632:643  savingToken */\n      0x00\n      dup1\n      sload\n      swap1\n      0x0100\n      exp\n      swap1\n      div\n      0xffffffffffffffffffffffffffffffffffffffff\n      and\n        /* \"contracts/Classwork.sol\":625:654  IERC20(savingToken).balanceOf */\n      0xffffffffffffffffffffffffffffffffffffffff\n      and\n      0x70a08231\n        /* \"contracts/Classwork.sol\":655:665  msg.sender */\n      caller\n        /* \"contracts/Classwork.sol\":625:666  IERC20(savingToken).balanceOf(msg.sender) */\n      mload(0x40)\n      dup3\n      0xffffffff\n      and\n      0xe0\n      shl\n      dup2\n      mstore\n      0x04\n      add\n      tag_71\n      swap2\n      swap1\n      tag_60\n      jump\t// in\n    tag_71:\n      0x20\n      mload(0x40)\n      dup1\n      dup4\n      sub\n      dup2\n      dup7\n      gas\n      staticcall\n      iszero\n      dup1\n      iszero\n      tag_73\n      jumpi\n      returndatasize\n      0x00\n      dup1\n      returndatacopy\n      revert(0x00, returndatasize)\n    tag_73:\n      pop\n      pop\n      pop\n      pop\n      mload(0x40)\n      returndatasize\n      not(0x1f)\n      0x1f\n      dup3\n      add\n      and\n      dup3\n      add\n      dup1\n      0x40\n      mstore\n      pop\n      dup2\n      add\n      swap1\n      tag_74\n      swap2\n      swap1\n      tag_64\n      jump\t// in\n    tag_74:\n        /* \"contracts/Classwork.sol\":625:677  IERC20(savingToken).balanceOf(msg.sender) >= _amount */\n      lt\n      iszero\n        /* \"contracts/Classwork.sol\":604:719  require(... */\n      tag_75\n      jumpi\n      mload(0x40)\n      0x08c379a000000000000000000000000000000000000000000000000000000000\n      dup2\n      mstore\n      0x04\n      add\n      tag_76\n      swap1\n      tag_77\n      jump\t// in\n    tag_76:\n      mload(0x40)\n      dup1\n      swap2\n      sub\n      swap1\n      revert\n    tag_75:\n        /* \"contracts/Classwork.sol\":758:769  savingToken */\n      0x00\n      dup1\n      sload\n      swap1\n      0x0100\n      exp\n      swap1\n      div\n      0xffffffffffffffffffffffffffffffffffffffff\n      and\n        /* \"contracts/Classwork.sol\":751:783  IERC20(savingToken).transferFrom */\n      0xffffffffffffffffffffffffffffffffffffffff\n      and\n      0x23b872dd\n        /* \"contracts/Classwork.sol\":801:811  msg.sender */\n      caller\n        /* \"contracts/Classwork.sol\":837:841  this */\n      address\n        /* \"contracts/Classwork.sol\":860:867  _amount */\n      dup5\n        /* \"contracts/Classwork.sol\":751:881  IERC20(savingToken).transferFrom(... */\n      mload(0x40)\n      dup5\n      0xffffffff\n      and\n      0xe0\n      shl\n      dup2\n      mstore\n      0x04\n      add\n      tag_78\n      swap4\n      swap3\n      swap2\n      swap1\n      tag_79\n      jump\t// in\n    tag_78:\n      0x20\n      mload(0x40)\n      dup1\n      dup4\n      sub\n      dup2\n      0x00\n      dup8\n      gas\n      call\n      iszero\n      dup1\n      iszero\n      tag_81\n      jumpi\n      returndatasize\n      0x00\n      dup1\n      returndatacopy\n      revert(0x00, returndatasize)\n    tag_81:\n      pop\n      pop\n      pop\n      pop\n      mload(0x40)\n      returndatasize\n      not(0x1f)\n      0x1f\n      dup3\n      add\n      and\n      dup3\n      add\n      dup1\n      0x40\n      mstore\n      pop\n      dup2\n      add\n      swap1\n      tag_82\n      swap2\n      swap1\n      tag_45\n      jump\t// in\n    tag_82:\n        /* \"contracts/Classwork.sol\":730:925  require(... */\n      tag_83\n      jumpi\n      mload(0x40)\n      0x08c379a000000000000000000000000000000000000000000000000000000000\n      dup2\n      mstore\n      0x04\n      add\n      tag_84\n      swap1\n      tag_85\n      jump\t// in\n    tag_84:\n      mload(0x40)\n      dup1\n      swap2\n      sub\n      swap1\n      revert\n    tag_83:\n        /* \"contracts/Classwork.sol\":959:966  _amount */\n      dup1\n        /* \"contracts/Classwork.sol\":936:943  savings */\n      0x02\n        /* \"contracts/Classwork.sol\":936:955  savings[msg.sender] */\n      0x00\n        /* \"contracts/Classwork.sol\":944:954  msg.sender */\n      caller\n        /* \"contracts/Classwork.sol\":936:955  savings[msg.sender] */\n      0xffffffffffffffffffffffffffffffffffffffff\n      and\n      0xffffffffffffffffffffffffffffffffffffffff\n      and\n      dup2\n      mstore\n      0x20\n      add\n      swap1\n      dup2\n      mstore\n      0x20\n      add\n      0x00\n      keccak256\n      0x00\n        /* \"contracts/Classwork.sol\":936:966  savings[msg.sender] += _amount */\n      dup3\n      dup3\n      sload\n      tag_86\n      swap2\n      swap1\n      tag_87\n      jump\t// in\n    tag_86:\n      swap3\n      pop\n      pop\n      dup2\n      swap1\n      sstore\n      pop\n        /* \"contracts/Classwork.sol\":982:1019  SavingSuccessful(msg.sender, _amount) */\n      0x62d8fec9f61d4b47a4873e3c6baf9e3834c5d36a06c7035b3e2f4239b6fd6d69\n        /* \"contracts/Classwork.sol\":999:1009  msg.sender */\n      caller\n        /* \"contracts/Classwork.sol\":1011:1018  _amount */\n      dup3\n        /* \"contracts/Classwork.sol\":982:1019  SavingSuccessful(msg.sender, _amount) */\n      mload(0x40)\n      tag_88\n      swap3\n      swap2\n      swap1\n      tag_41\n      jump\t// in\n    tag_88:\n      mload(0x40)\n      dup1\n      swap2\n      sub\n      swap1\n      log1\n        /* \"contracts/Classwork.sol\":428:1026  function deposit(uint256 _amount) external {... */\n      pop\n      jump\t// out\n        /* \"#utility.yul\":88:205   */\n    tag_90:\n        /* \"#utility.yul\":197:198   */\n      0x00\n        /* \"#utility.yul\":194:195   */\n      dup1\n        /* \"#utility.yul\":187:199   */\n      revert\n        /* \"#utility.yul\":334:460   */\n    tag_92:\n        /* \"#utility.yul\":371:378   */\n      0x00\n        /* \"#utility.yul\":411:453   */\n      0xffffffffffffffffffffffffffffffffffffffff\n        /* \"#utility.yul\":404:409   */\n      dup3\n        /* \"#utility.yul\":400:454   */\n      and\n        /* \"#utility.yul\":389:454   */\n      swap1\n      pop\n        /* \"#utility.yul\":334:460   */\n      swap2\n      swap1\n      pop\n      jump\t// out\n        /* \"#utility.yul\":466:562   */\n    tag_93:\n        /* \"#utility.yul\":503:510   */\n      0x00\n        /* \"#utility.yul\":532:556   */\n      tag_129\n        /* \"#utility.yul\":550:555   */\n      dup3\n        /* \"#utility.yul\":532:556   */\n      tag_92\n      jump\t// in\n    tag_129:\n        /* \"#utility.yul\":521:556   */\n      swap1\n      pop\n        /* \"#utility.yul\":466:562   */\n      swap2\n      swap1\n      pop\n      jump\t// out\n        /* \"#utility.yul\":568:690   */\n    tag_94:\n        /* \"#utility.yul\":641:665   */\n      tag_131\n        /* \"#utility.yul\":659:664   */\n      dup2\n        /* \"#utility.yul\":641:665   */\n      tag_93\n      jump\t// in\n    tag_131:\n        /* \"#utility.yul\":634:639   */\n      dup2\n        /* \"#utility.yul\":631:666   */\n      eq\n        /* \"#utility.yul\":621:684   */\n      tag_132\n      jumpi\n        /* \"#utility.yul\":680:681   */\n      0x00\n        /* \"#utility.yul\":677:678   */\n      dup1\n        /* \"#utility.yul\":670:682   */\n      revert\n        /* \"#utility.yul\":621:684   */\n    tag_132:\n        /* \"#utility.yul\":568:690   */\n      pop\n      jump\t// out\n        /* \"#utility.yul\":696:835   */\n    tag_95:\n        /* \"#utility.yul\":742:747   */\n      0x00\n        /* \"#utility.yul\":780:786   */\n      dup2\n        /* \"#utility.yul\":767:787   */\n      calldataload\n        /* \"#utility.yul\":758:787   */\n      swap1\n      pop\n        /* \"#utility.yul\":796:829   */\n      tag_134\n        /* \"#utility.yul\":823:828   */\n      dup2\n        /* \"#utility.yul\":796:829   */\n      tag_94\n      jump\t// in\n    tag_134:\n        /* \"#utility.yul\":696:835   */\n      swap3\n      swap2\n      pop\n      pop\n      jump\t// out\n        /* \"#utility.yul\":841:1170   */\n    tag_10:\n        /* \"#utility.yul\":900:906   */\n      0x00\n        /* \"#utility.yul\":949:951   */\n      0x20\n        /* \"#utility.yul\":937:946   */\n      dup3\n        /* \"#utility.yul\":928:935   */\n      dup5\n        /* \"#utility.yul\":924:947   */\n      sub\n        /* \"#utility.yul\":920:952   */\n      slt\n        /* \"#utility.yul\":917:1036   */\n      iszero\n      tag_136\n      jumpi\n        /* \"#utility.yul\":955:1034   */\n      tag_137\n      tag_90\n      jump\t// in\n    tag_137:\n        /* \"#utility.yul\":917:1036   */\n    tag_136:\n        /* \"#utility.yul\":1075:1076   */\n      0x00\n        /* \"#utility.yul\":1100:1153   */\n      tag_138\n        /* \"#utility.yul\":1145:1152   */\n      dup5\n        /* \"#utility.yul\":1136:1142   */\n      dup3\n        /* \"#utility.yul\":1125:1134   */\n      dup6\n        /* \"#utility.yul\":1121:1143   */\n      add\n        /* \"#utility.yul\":1100:1153   */\n      tag_95\n      jump\t// in\n    tag_138:\n        /* \"#utility.yul\":1090:1153   */\n      swap2\n      pop\n        /* \"#utility.yul\":1046:1163   */\n      pop\n        /* \"#utility.yul\":841:1170   */\n      swap3\n      swap2\n      pop\n      pop\n      jump\t// out\n        /* \"#utility.yul\":1176:1253   */\n    tag_96:\n        /* \"#utility.yul\":1213:1220   */\n      0x00\n        /* \"#utility.yul\":1242:1247   */\n      dup2\n        /* \"#utility.yul\":1231:1247   */\n      swap1\n      pop\n        /* \"#utility.yul\":1176:1253   */\n      swap2\n      swap1\n      pop\n      jump\t// out\n        /* \"#utility.yul\":1259:1377   */\n    tag_97:\n        /* \"#utility.yul\":1346:1370   */\n      tag_141\n        /* \"#utility.yul\":1364:1369   */\n      dup2\n        /* \"#utility.yul\":1346:1370   */\n      tag_96\n      jump\t// in\n    tag_141:\n        /* \"#utility.yul\":1341:1344   */\n      dup3\n        /* \"#utility.yul\":1334:1371   */\n      mstore\n        /* \"#utility.yul\":1259:1377   */\n      pop\n      pop\n      jump\t// out\n        /* \"#utility.yul\":1383:1605   */\n    tag_13:\n        /* \"#utility.yul\":1476:1480   */\n      0x00\n        /* \"#utility.yul\":1514:1516   */\n      0x20\n        /* \"#utility.yul\":1503:1512   */\n      dup3\n        /* \"#utility.yul\":1499:1517   */\n      add\n        /* \"#utility.yul\":1491:1517   */\n      swap1\n      pop\n        /* \"#utility.yul\":1527:1598   */\n      tag_143\n        /* \"#utility.yul\":1595:1596   */\n      0x00\n        /* \"#utility.yul\":1584:1593   */\n      dup4\n        /* \"#utility.yul\":1580:1597   */\n      add\n        /* \"#utility.yul\":1571:1577   */\n      dup5\n        /* \"#utility.yul\":1527:1598   */\n      tag_97\n      jump\t// in\n    tag_143:\n        /* \"#utility.yul\":1383:1605   */\n      swap3\n      swap2\n      pop\n      pop\n      jump\t// out\n        /* \"#utility.yul\":1611:1733   */\n    tag_98:\n        /* \"#utility.yul\":1684:1708   */\n      tag_145\n        /* \"#utility.yul\":1702:1707   */\n      dup2\n        /* \"#utility.yul\":1684:1708   */\n      tag_96\n      jump\t// in\n    tag_145:\n        /* \"#utility.yul\":1677:1682   */\n      dup2\n        /* \"#utility.yul\":1674:1709   */\n      eq\n        /* \"#utility.yul\":1664:1727   */\n      tag_146\n      jumpi\n        /* \"#utility.yul\":1723:1724   */\n      0x00\n        /* \"#utility.yul\":1720:1721   */\n      dup1\n        /* \"#utility.yul\":1713:1725   */\n      revert\n        /* \"#utility.yul\":1664:1727   */\n    tag_146:\n        /* \"#utility.yul\":1611:1733   */\n      pop\n      jump\t// out\n        /* \"#utility.yul\":1739:1878   */\n    tag_99:\n        /* \"#utility.yul\":1785:1790   */\n      0x00\n        /* \"#utility.yul\":1823:1829   */\n      dup2\n        /* \"#utility.yul\":1810:1830   */\n      calldataload\n        /* \"#utility.yul\":1801:1830   */\n      swap1\n      pop\n        /* \"#utility.yul\":1839:1872   */\n      tag_148\n        /* \"#utility.yul\":1866:1871   */\n      dup2\n        /* \"#utility.yul\":1839:1872   */\n      tag_98\n      jump\t// in\n    tag_148:\n        /* \"#utility.yul\":1739:1878   */\n      swap3\n      swap2\n      pop\n      pop\n      jump\t// out\n        /* \"#utility.yul\":1884:2213   */\n    tag_16:\n        /* \"#utility.yul\":1943:1949   */\n      0x00\n        /* \"#utility.yul\":1992:1994   */\n      0x20\n        /* \"#utility.yul\":1980:1989   */\n      dup3\n        /* \"#utility.yul\":1971:1978   */\n      dup5\n        /* \"#utility.yul\":1967:1990   */\n      sub\n        /* \"#utility.yul\":1963:1995   */\n      slt\n        /* \"#utility.yul\":1960:2079   */\n      iszero\n      tag_150\n      jumpi\n        /* \"#utility.yul\":1998:2077   */\n      tag_151\n      tag_90\n      jump\t// in\n    tag_151:\n        /* \"#utility.yul\":1960:2079   */\n    tag_150:\n        /* \"#utility.yul\":2118:2119   */\n      0x00\n        /* \"#utility.yul\":2143:2196   */\n      tag_152\n        /* \"#utility.yul\":2188:2195   */\n      dup5\n        /* \"#utility.yul\":2179:2185   */\n      dup3\n        /* \"#utility.yul\":2168:2177   */\n      dup6\n        /* \"#utility.yul\":2164:2186   */\n      add\n        /* \"#utility.yul\":2143:2196   */\n      tag_99\n      jump\t// in\n    tag_152:\n        /* \"#utility.yul\":2133:2196   */\n      swap2\n      pop\n        /* \"#utility.yul\":2089:2206   */\n      pop\n        /* \"#utility.yul\":1884:2213   */\n      swap3\n      swap2\n      pop\n      pop\n      jump\t// out\n        /* \"#utility.yul\":2219:2388   */\n    tag_100:\n        /* \"#utility.yul\":2303:2314   */\n      0x00\n        /* \"#utility.yul\":2337:2343   */\n      dup3\n        /* \"#utility.yul\":2332:2335   */\n      dup3\n        /* \"#utility.yul\":2325:2344   */\n      mstore\n        /* \"#utility.yul\":2377:2381   */\n      0x20\n        /* \"#utility.yul\":2372:2375   */\n      dup3\n        /* \"#utility.yul\":2368:2382   */\n      add\n        /* \"#utility.yul\":2353:2382   */\n      swap1\n      pop\n        /* \"#utility.yul\":2219:2388   */\n      swap3\n      swap2\n      pop\n      pop\n      jump\t// out\n        /* \"#utility.yul\":2394:2565   */\n    tag_101:\n        /* \"#utility.yul\":2534:2557   */\n      0x61646472657373207a65726f2064657465637465640000000000000000000000\n        /* \"#utility.yul\":2530:2531   */\n      0x00\n        /* \"#utility.yul\":2522:2528   */\n      dup3\n        /* \"#utility.yul\":2518:2532   */\n      add\n        /* \"#utility.yul\":2511:2558   */\n      mstore\n        /* \"#utility.yul\":2394:2565   */\n      pop\n      jump\t// out\n        /* \"#utility.yul\":2571:2937   */\n    tag_102:\n        /* \"#utility.yul\":2713:2716   */\n      0x00\n        /* \"#utility.yul\":2734:2801   */\n      tag_156\n        /* \"#utility.yul\":2798:2800   */\n      0x15\n        /* \"#utility.yul\":2793:2796   */\n      dup4\n        /* \"#utility.yul\":2734:2801   */\n      tag_100\n      jump\t// in\n    tag_156:\n        /* \"#utility.yul\":2727:2801   */\n      swap2\n      pop\n        /* \"#utility.yul\":2810:2903   */\n      tag_157\n        /* \"#utility.yul\":2899:2902   */\n      dup3\n        /* \"#utility.yul\":2810:2903   */\n      tag_101\n      jump\t// in\n    tag_157:\n        /* \"#utility.yul\":2928:2930   */\n      0x20\n        /* \"#utility.yul\":2923:2926   */\n      dup3\n        /* \"#utility.yul\":2919:2931   */\n      add\n        /* \"#utility.yul\":2912:2931   */\n      swap1\n      pop\n        /* \"#utility.yul\":2571:2937   */\n      swap2\n      swap1\n      pop\n      jump\t// out\n        /* \"#utility.yul\":2943:3362   */\n    tag_31:\n        /* \"#utility.yul\":3109:3113   */\n      0x00\n        /* \"#utility.yul\":3147:3149   */\n      0x20\n        /* \"#utility.yul\":3136:3145   */\n      dup3\n        /* \"#utility.yul\":3132:3150   */\n      add\n        /* \"#utility.yul\":3124:3150   */\n      swap1\n      pop\n        /* \"#utility.yul\":3196:3205   */\n      dup2\n        /* \"#utility.yul\":3190:3194   */\n      dup2\n        /* \"#utility.yul\":3186:3206   */\n      sub\n        /* \"#utility.yul\":3182:3183   */\n      0x00\n        /* \"#utility.yul\":3171:3180   */\n      dup4\n        /* \"#utility.yul\":3167:3184   */\n      add\n        /* \"#utility.yul\":3160:3207   */\n      mstore\n        /* \"#utility.yul\":3224:3355   */\n      tag_159\n        /* \"#utility.yul\":3350:3354   */\n      dup2\n        /* \"#utility.yul\":3224:3355   */\n      tag_102\n      jump\t// in\n    tag_159:\n        /* \"#utility.yul\":3216:3355   */\n      swap1\n      pop\n        /* \"#utility.yul\":2943:3362   */\n      swap2\n      swap1\n      pop\n      jump\t// out\n        /* \"#utility.yul\":3368:3543   */\n    tag_103:\n        /* \"#utility.yul\":3508:3535   */\n      0x63616e2774207769746864726177207a65726f2076616c756500000000000000\n        /* \"#utility.yul\":3504:3505   */\n      0x00\n        /* \"#utility.yul\":3496:3502   */\n      dup3\n        /* \"#utility.yul\":3492:3506   */\n      add\n        /* \"#utility.yul\":3485:3536   */\n      mstore\n        /* \"#utility.yul\":3368:3543   */\n      pop\n      jump\t// out\n        /* \"#utility.yul\":3549:3915   */\n    tag_104:\n        /* \"#utility.yul\":3691:3694   */\n      0x00\n        /* \"#utility.yul\":3712:3779   */\n      tag_162\n        /* \"#utility.yul\":3776:3778   */\n      0x19\n        /* \"#utility.yul\":3771:3774   */\n      dup4\n        /* \"#utility.yul\":3712:3779   */\n      tag_100\n      jump\t// in\n    tag_162:\n        /* \"#utility.yul\":3705:3779   */\n      swap2\n      pop\n        /* \"#utility.yul\":3788:3881   */\n      tag_163\n        /* \"#utility.yul\":3877:3880   */\n      dup3\n        /* \"#utility.yul\":3788:3881   */\n      tag_103\n      jump\t// in\n    tag_163:\n        /* \"#utility.yul\":3906:3908   */\n      0x20\n        /* \"#utility.yul\":3901:3904   */\n      dup3\n        /* \"#utility.yul\":3897:3909   */\n      add\n        /* \"#utility.yul\":3890:3909   */\n      swap1\n      pop\n        /* \"#utility.yul\":3549:3915   */\n      swap2\n      swap1\n      pop\n      jump\t// out\n        /* \"#utility.yul\":3921:4340   */\n    tag_34:\n        /* \"#utility.yul\":4087:4091   */\n      0x00\n        /* \"#utility.yul\":4125:4127   */\n      0x20\n        /* \"#utility.yul\":4114:4123   */\n      dup3\n        /* \"#utility.yul\":4110:4128   */\n      add\n        /* \"#utility.yul\":4102:4128   */\n      swap1\n      pop\n        /* \"#utility.yul\":4174:4183   */\n      dup2\n        /* \"#utility.yul\":4168:4172   */\n      dup2\n        /* \"#utility.yul\":4164:4184   */\n      sub\n        /* \"#utility.yul\":4160:4161   */\n      0x00\n        /* \"#utility.yul\":4149:4158   */\n      dup4\n        /* \"#utility.yul\":4145:4162   */\n      add\n        /* \"#utility.yul\":4138:4185   */\n      mstore\n        /* \"#utility.yul\":4202:4333   */\n      tag_165\n        /* \"#utility.yul\":4328:4332   */\n      dup2\n        /* \"#utility.yul\":4202:4333   */\n      tag_104\n      jump\t// in\n    tag_165:\n        /* \"#utility.yul\":4194:4333   */\n      swap1\n      pop\n        /* \"#utility.yul\":3921:4340   */\n      swap2\n      swap1\n      pop\n      jump\t// out\n        /* \"#utility.yul\":4346:4514   */\n    tag_105:\n        /* \"#utility.yul\":4486:4506   */\n      0x696e73756666696369656e742066756e64730000000000000000000000000000\n        /* \"#utility.yul\":4482:4483   */\n      0x00\n        /* \"#utility.yul\":4474:4480   */\n      dup3\n        /* \"#utility.yul\":4470:4484   */\n      add\n        /* \"#utility.yul\":4463:4507   */\n      mstore\n        /* \"#utility.yul\":4346:4514   */\n      pop\n      jump\t// out\n        /* \"#utility.yul\":4520:4886   */\n    tag_106:\n        /* \"#utility.yul\":4662:4665   */\n      0x00\n        /* \"#utility.yul\":4683:4750   */\n      tag_168\n        /* \"#utility.yul\":4747:4749   */\n      0x12\n        /* \"#utility.yul\":4742:4745   */\n      dup4\n        /* \"#utility.yul\":4683:4750   */\n      tag_100\n      jump\t// in\n    tag_168:\n        /* \"#utility.yul\":4676:4750   */\n      swap2\n      pop\n        /* \"#utility.yul\":4759:4852   */\n      tag_169\n        /* \"#utility.yul\":4848:4851   */\n      dup3\n        /* \"#utility.yul\":4759:4852   */\n      tag_105\n      jump\t// in\n    tag_169:\n        /* \"#utility.yul\":4877:4879   */\n      0x20\n        /* \"#utility.yul\":4872:4875   */\n      dup3\n        /* \"#utility.yul\":4868:4880   */\n      add\n        /* \"#utility.yul\":4861:4880   */\n      swap1\n      pop\n        /* \"#utility.yul\":4520:4886   */\n      swap2\n      swap1\n      pop\n      jump\t// out\n        /* \"#utility.yul\":4892:5311   */\n    tag_37:\n        /* \"#utility.yul\":5058:5062   */\n      0x00\n        /* \"#utility.yul\":5096:5098   */\n      0x20\n        /* \"#utility.yul\":5085:5094   */\n      dup3\n        /* \"#utility.yul\":5081:5099   */\n      add\n        /* \"#utility.yul\":5073:5099   */\n      swap1\n      pop\n        /* \"#utility.yul\":5145:5154   */\n      dup2\n        /* \"#utility.yul\":5139:5143   */\n      dup2\n        /* \"#utility.yul\":5135:5155   */\n      sub\n        /* \"#utility.yul\":5131:5132   */\n      0x00\n        /* \"#utility.yul\":5120:5129   */\n      dup4\n        /* \"#utility.yul\":5116:5133   */\n      add\n        /* \"#utility.yul\":5109:5156   */\n      mstore\n        /* \"#utility.yul\":5173:5304   */\n      tag_171\n        /* \"#utility.yul\":5299:5303   */\n      dup2\n        /* \"#utility.yul\":5173:5304   */\n      tag_106\n      jump\t// in\n    tag_171:\n        /* \"#utility.yul\":5165:5304   */\n      swap1\n      pop\n        /* \"#utility.yul\":4892:5311   */\n      swap2\n      swap1\n      pop\n      jump\t// out\n        /* \"#utility.yul\":5317:5497   */\n    tag_107:\n        /* \"#utility.yul\":5365:5442   */\n      0x4e487b7100000000000000000000000000000000000000000000000000000000\n        /* \"#utility.yul\":5362:5363   */\n      0x00\n        /* \"#utility.yul\":5355:5443   */\n      mstore\n        /* \"#utility.yul\":5462:5466   */\n      0x11\n        /* \"#utility.yul\":5459:5460   */\n      0x04\n        /* \"#utility.yul\":5452:5467   */\n      mstore\n        /* \"#utility.yul\":5486:5490   */\n      0x24\n        /* \"#utility.yul\":5483:5484   */\n      0x00\n        /* \"#utility.yul\":5476:5491   */\n      revert\n        /* \"#utility.yul\":5503:5697   */\n    tag_39:\n        /* \"#utility.yul\":5543:5547   */\n      0x00\n        /* \"#utility.yul\":5563:5583   */\n      tag_174\n        /* \"#utility.yul\":5581:5582   */\n      dup3\n        /* \"#utility.yul\":5563:5583   */\n      tag_96\n      jump\t// in\n    tag_174:\n        /* \"#utility.yul\":5558:5583   */\n      swap2\n      pop\n        /* \"#utility.yul\":5597:5617   */\n      tag_175\n        /* \"#utility.yul\":5615:5616   */\n      dup4\n        /* \"#utility.yul\":5597:5617   */\n      tag_96\n      jump\t// in\n    tag_175:\n        /* \"#utility.yul\":5592:5617   */\n      swap3\n      pop\n        /* \"#utility.yul\":5641:5642   */\n      dup3\n        /* \"#utility.yul\":5638:5639   */\n      dup3\n        /* \"#utility.yul\":5634:5643   */\n      sub\n        /* \"#utility.yul\":5626:5643   */\n      swap1\n      pop\n        /* \"#utility.yul\":5665:5666   */\n      dup2\n        /* \"#utility.yul\":5659:5663   */\n      dup2\n        /* \"#utility.yul\":5656:5667   */\n      gt\n        /* \"#utility.yul\":5653:5690   */\n      iszero\n      tag_176\n      jumpi\n        /* \"#utility.yul\":5670:5688   */\n      tag_177\n      tag_107\n      jump\t// in\n    tag_177:\n        /* \"#utility.yul\":5653:5690   */\n    tag_176:\n        /* \"#utility.yul\":5503:5697   */\n      swap3\n      swap2\n      pop\n      pop\n      jump\t// out\n        /* \"#utility.yul\":5703:5821   */\n    tag_108:\n        /* \"#utility.yul\":5790:5814   */\n      tag_179\n        /* \"#utility.yul\":5808:5813   */\n      dup2\n        /* \"#utility.yul\":5790:5814   */\n      tag_93\n      jump\t// in\n    tag_179:\n        /* \"#utility.yul\":5785:5788   */\n      dup3\n        /* \"#utility.yul\":5778:5815   */\n      mstore\n        /* \"#utility.yul\":5703:5821   */\n      pop\n      pop\n      jump\t// out\n        /* \"#utility.yul\":5827:6159   */\n    tag_41:\n        /* \"#utility.yul\":5948:5952   */\n      0x00\n        /* \"#utility.yul\":5986:5988   */\n      0x40\n        /* \"#utility.yul\":5975:5984   */\n      dup3\n        /* \"#utility.yul\":5971:5989   */\n      add\n        /* \"#utility.yul\":5963:5989   */\n      swap1\n      pop\n        /* \"#utility.yul\":5999:6070   */\n      tag_181\n        /* \"#utility.yul\":6067:6068   */\n      0x00\n        /* \"#utility.yul\":6056:6065   */\n      dup4\n        /* \"#utility.yul\":6052:6069   */\n      add\n        /* \"#utility.yul\":6043:6049   */\n      dup6\n        /* \"#utility.yul\":5999:6070   */\n      tag_108\n      jump\t// in\n    tag_181:\n        /* \"#utility.yul\":6080:6152   */\n      tag_182\n        /* \"#utility.yul\":6148:6150   */\n      0x20\n        /* \"#utility.yul\":6137:6146   */\n      dup4\n        /* \"#utility.yul\":6133:6151   */\n      add\n        /* \"#utility.yul\":6124:6130   */\n      dup5\n        /* \"#utility.yul\":6080:6152   */\n      tag_97\n      jump\t// in\n    tag_182:\n        /* \"#utility.yul\":5827:6159   */\n      swap4\n      swap3\n      pop\n      pop\n      pop\n      jump\t// out\n        /* \"#utility.yul\":6165:6255   */\n    tag_109:\n        /* \"#utility.yul\":6199:6206   */\n      0x00\n        /* \"#utility.yul\":6242:6247   */\n      dup2\n        /* \"#utility.yul\":6235:6248   */\n      iszero\n        /* \"#utility.yul\":6228:6249   */\n      iszero\n        /* \"#utility.yul\":6217:6249   */\n      swap1\n      pop\n        /* \"#utility.yul\":6165:6255   */\n      swap2\n      swap1\n      pop\n      jump\t// out\n        /* \"#utility.yul\":6261:6377   */\n    tag_110:\n        /* \"#utility.yul\":6331:6352   */\n      tag_185\n        /* \"#utility.yul\":6346:6351   */\n      dup2\n        /* \"#utility.yul\":6331:6352   */\n      tag_109\n      jump\t// in\n    tag_185:\n        /* \"#utility.yul\":6324:6329   */\n      dup2\n        /* \"#utility.yul\":6321:6353   */\n      eq\n        /* \"#utility.yul\":6311:6371   */\n      tag_186\n      jumpi\n        /* \"#utility.yul\":6367:6368   */\n      0x00\n        /* \"#utility.yul\":6364:6365   */\n      dup1\n        /* \"#utility.yul\":6357:6369   */\n      revert\n        /* \"#utility.yul\":6311:6371   */\n    tag_186:\n        /* \"#utility.yul\":6261:6377   */\n      pop\n      jump\t// out\n        /* \"#utility.yul\":6383:6520   */\n    tag_111:\n        /* \"#utility.yul\":6437:6442   */\n      0x00\n        /* \"#utility.yul\":6468:6474   */\n      dup2\n        /* \"#utility.yul\":6462:6475   */\n      mload\n        /* \"#utility.yul\":6453:6475   */\n      swap1\n      pop\n        /* \"#utility.yul\":6484:6514   */\n      tag_188\n        /* \"#utility.yul\":6508:6513   */\n      dup2\n        /* \"#utility.yul\":6484:6514   */\n      tag_110\n      jump\t// in\n    tag_188:\n        /* \"#utility.yul\":6383:6520   */\n      swap3\n      swap2\n      pop\n      pop\n      jump\t// out\n        /* \"#utility.yul\":6526:6871   */\n    tag_45:\n        /* \"#utility.yul\":6593:6599   */\n      0x00\n        /* \"#utility.yul\":6642:6644   */\n      0x20\n        /* \"#utility.yul\":6630:6639   */\n      dup3\n        /* \"#utility.yul\":6621:6628   */\n      dup5\n        /* \"#utility.yul\":6617:6640   */\n      sub\n        /* \"#utility.yul\":6613:6645   */\n      slt\n        /* \"#utility.yul\":6610:6729   */\n      iszero\n      tag_190\n      jumpi\n        /* \"#utility.yul\":6648:6727   */\n      tag_191\n      tag_90\n      jump\t// in\n    tag_191:\n        /* \"#utility.yul\":6610:6729   */\n    tag_190:\n        /* \"#utility.yul\":6768:6769   */\n      0x00\n        /* \"#utility.yul\":6793:6854   */\n      tag_192\n        /* \"#utility.yul\":6846:6853   */\n      dup5\n        /* \"#utility.yul\":6837:6843   */\n      dup3\n        /* \"#utility.yul\":6826:6835   */\n      dup6\n        /* \"#utility.yul\":6822:6844   */\n      add\n        /* \"#utility.yul\":6793:6854   */\n      tag_111\n      jump\t// in\n    tag_192:\n        /* \"#utility.yul\":6783:6854   */\n      swap2\n      pop\n        /* \"#utility.yul\":6739:6864   */\n      pop\n        /* \"#utility.yul\":6526:6871   */\n      swap3\n      swap2\n      pop\n      pop\n      jump\t// out\n        /* \"#utility.yul\":6877:7045   */\n    tag_112:\n        /* \"#utility.yul\":7017:7037   */\n      0x6661696c656420746f2077697468647261770000000000000000000000000000\n        /* \"#utility.yul\":7013:7014   */\n      0x00\n        /* \"#utility.yul\":7005:7011   */\n      dup3\n        /* \"#utility.yul\":7001:7015   */\n      add\n        /* \"#utility.yul\":6994:7038   */\n      mstore\n        /* \"#utility.yul\":6877:7045   */\n      pop\n      jump\t// out\n        /* \"#utility.yul\":7051:7417   */\n    tag_113:\n        /* \"#utility.yul\":7193:7196   */\n      0x00\n        /* \"#utility.yul\":7214:7281   */\n      tag_195\n        /* \"#utility.yul\":7278:7280   */\n      0x12\n        /* \"#utility.yul\":7273:7276   */\n      dup4\n        /* \"#utility.yul\":7214:7281   */\n      tag_100\n      jump\t// in\n    tag_195:\n        /* \"#utility.yul\":7207:7281   */\n      swap2\n      pop\n        /* \"#utility.yul\":7290:7383   */\n      tag_196\n        /* \"#utility.yul\":7379:7382   */\n      dup3\n        /* \"#utility.yul\":7290:7383   */\n      tag_112\n      jump\t// in\n    tag_196:\n        /* \"#utility.yul\":7408:7410   */\n      0x20\n        /* \"#utility.yul\":7403:7406   */\n      dup3\n        /* \"#utility.yul\":7399:7411   */\n      add\n        /* \"#utility.yul\":7392:7411   */\n      swap1\n      pop\n        /* \"#utility.yul\":7051:7417   */\n      swap2\n      swap1\n      pop\n      jump\t// out\n        /* \"#utility.yul\":7423:7842   */\n    tag_48:\n        /* \"#utility.yul\":7589:7593   */\n      0x00\n        /* \"#utility.yul\":7627:7629   */\n      0x20\n        /* \"#utility.yul\":7616:7625   */\n      dup3\n        /* \"#utility.yul\":7612:7630   */\n      add\n        /* \"#utility.yul\":7604:7630   */\n      swap1\n      pop\n        /* \"#utility.yul\":7676:7685   */\n      dup2\n        /* \"#utility.yul\":7670:7674   */\n      dup2\n        /* \"#utility.yul\":7666:7686   */\n      sub\n        /* \"#utility.yul\":7662:7663   */\n      0x00\n        /* \"#utility.yul\":7651:7660   */\n      dup4\n        /* \"#utility.yul\":7647:7664   */\n      add\n        /* \"#utility.yul\":7640:7687   */\n      mstore\n        /* \"#utility.yul\":7704:7835   */\n      tag_198\n        /* \"#utility.yul\":7830:7834   */\n      dup2\n        /* \"#utility.yul\":7704:7835   */\n      tag_113\n      jump\t// in\n    tag_198:\n        /* \"#utility.yul\":7696:7835   */\n      swap1\n      pop\n        /* \"#utility.yul\":7423:7842   */\n      swap2\n      swap1\n      pop\n      jump\t// out\n        /* \"#utility.yul\":7848:8007   */\n    tag_114:\n        /* \"#utility.yul\":7988:7999   */\n      0x6e6f74206f776e65720000000000000000000000000000000000000000000000\n        /* \"#utility.yul\":7984:7985   */\n      0x00\n        /* \"#utility.yul\":7976:7982   */\n      dup3\n        /* \"#utility.yul\":7972:7986   */\n      add\n        /* \"#utility.yul\":7965:8000   */\n      mstore\n        /* \"#utility.yul\":7848:8007   */\n      pop\n      jump\t// out\n        /* \"#utility.yul\":8013:8378   */\n    tag_115:\n        /* \"#utility.yul\":8155:8158   */\n      0x00\n        /* \"#utility.yul\":8176:8242   */\n      tag_201\n        /* \"#utility.yul\":8240:8241   */\n      0x09\n        /* \"#utility.yul\":8235:8238   */\n      dup4\n        /* \"#utility.yul\":8176:8242   */\n      tag_100\n      jump\t// in\n    tag_201:\n        /* \"#utility.yul\":8169:8242   */\n      swap2\n      pop\n        /* \"#utility.yul\":8251:8344   */\n      tag_202\n        /* \"#utility.yul\":8340:8343   */\n      dup3\n        /* \"#utility.yul\":8251:8344   */\n      tag_114\n      jump\t// in\n    tag_202:\n        /* \"#utility.yul\":8369:8371   */\n      0x20\n        /* \"#utility.yul\":8364:8367   */\n      dup3\n        /* \"#utility.yul\":8360:8372   */\n      add\n        /* \"#utility.yul\":8353:8372   */\n      swap1\n      pop\n        /* \"#utility.yul\":8013:8378   */\n      swap2\n      swap1\n      pop\n      jump\t// out\n        /* \"#utility.yul\":8384:8803   */\n    tag_53:\n        /* \"#utility.yul\":8550:8554   */\n      0x00\n        /* \"#utility.yul\":8588:8590   */\n      0x20\n        /* \"#utility.yul\":8577:8586   */\n      dup3\n        /* \"#utility.yul\":8573:8591   */\n      add\n        /* \"#utility.yul\":8565:8591   */\n      swap1\n      pop\n        /* \"#utility.yul\":8637:8646   */\n      dup2\n        /* \"#utility.yul\":8631:8635   */\n      dup2\n        /* \"#utility.yul\":8627:8647   */\n      sub\n        /* \"#utility.yul\":8623:8624   */\n      0x00\n        /* \"#utility.yul\":8612:8621   */\n      dup4\n        /* \"#utility.yul\":8608:8625   */\n      add\n        /* \"#utility.yul\":8601:8648   */\n      mstore\n        /* \"#utility.yul\":8665:8796   */\n      tag_204\n        /* \"#utility.yul\":8791:8795   */\n      dup2\n        /* \"#utility.yul\":8665:8796   */\n      tag_115\n      jump\t// in\n    tag_204:\n        /* \"#utility.yul\":8657:8796   */\n      swap1\n      pop\n        /* \"#utility.yul\":8384:8803   */\n      swap2\n      swap1\n      pop\n      jump\t// out\n        /* \"#utility.yul\":8809:9031   */\n    tag_60:\n        /* \"#utility.yul\":8902:8906   */\n      0x00\n        /* \"#utility.yul\":8940:8942   */\n      0x20\n        /* \"#utility.yul\":8929:8938   */\n      dup3\n        /* \"#utility.yul\":8925:8943   */\n      add\n        /* \"#utility.yul\":8917:8943   */\n      swap1\n      pop\n        /* \"#utility.yul\":8953:9024   */\n      tag_206\n        /* \"#utility.yul\":9021:9022   */\n      0x00\n        /* \"#utility.yul\":9010:9019   */\n      dup4\n        /* \"#utility.yul\":9006:9023   */\n      add\n        /* \"#utility.yul\":8997:9003   */\n      dup5\n        /* \"#utility.yul\":8953:9024   */\n      tag_108\n      jump\t// in\n    tag_206:\n        /* \"#utility.yul\":8809:9031   */\n      swap3\n      swap2\n      pop\n      pop\n      jump\t// out\n        /* \"#utility.yul\":9037:9180   */\n    tag_116:\n        /* \"#utility.yul\":9094:9099   */\n      0x00\n        /* \"#utility.yul\":9125:9131   */\n      dup2\n        /* \"#utility.yul\":9119:9132   */\n      mload\n        /* \"#utility.yul\":9110:9132   */\n      swap1\n      pop\n        /* \"#utility.yul\":9141:9174   */\n      tag_208\n        /* \"#utility.yul\":9168:9173   */\n      dup2\n        /* \"#utility.yul\":9141:9174   */\n      tag_98\n      jump\t// in\n    tag_208:\n        /* \"#utility.yul\":9037:9180   */\n      swap3\n      swap2\n      pop\n      pop\n      jump\t// out\n        /* \"#utility.yul\":9186:9537   */\n    tag_64:\n        /* \"#utility.yul\":9256:9262   */\n      0x00\n        /* \"#utility.yul\":9305:9307   */\n      0x20\n        /* \"#utility.yul\":9293:9302   */\n      dup3\n        /* \"#utility.yul\":9284:9291   */\n      dup5\n        /* \"#utility.yul\":9280:9303   */\n      sub\n        /* \"#utility.yul\":9276:9308   */\n      slt\n        /* \"#utility.yul\":9273:9392   */\n      iszero\n      tag_210\n      jumpi\n        /* \"#utility.yul\":9311:9390   */\n      tag_211\n      tag_90\n      jump\t// in\n    tag_211:\n        /* \"#utility.yul\":9273:9392   */\n    tag_210:\n        /* \"#utility.yul\":9431:9432   */\n      0x00\n        /* \"#utility.yul\":9456:9520   */\n      tag_212\n        /* \"#utility.yul\":9512:9519   */\n      dup5\n        /* \"#utility.yul\":9503:9509   */\n      dup3\n        /* \"#utility.yul\":9492:9501   */\n      dup6\n        /* \"#utility.yul\":9488:9510   */\n      add\n        /* \"#utility.yul\":9456:9520   */\n      tag_116\n      jump\t// in\n    tag_212:\n        /* \"#utility.yul\":9446:9520   */\n      swap2\n      pop\n        /* \"#utility.yul\":9402:9530   */\n      pop\n        /* \"#utility.yul\":9186:9537   */\n      swap3\n      swap2\n      pop\n      pop\n      jump\t// out\n        /* \"#utility.yul\":9543:9714   */\n    tag_117:\n        /* \"#utility.yul\":9683:9706   */\n      0x63616e27742073617665207a65726f2076616c75650000000000000000000000\n        /* \"#utility.yul\":9679:9680   */\n      0x00\n        /* \"#utility.yul\":9671:9677   */\n      dup3\n        /* \"#utility.yul\":9667:9681   */\n      add\n        /* \"#utility.yul\":9660:9707   */\n      mstore\n        /* \"#utility.yul\":9543:9714   */\n      pop\n      jump\t// out\n        /* \"#utility.yul\":9720:10086   */\n    tag_118:\n        /* \"#utility.yul\":9862:9865   */\n      0x00\n        /* \"#utility.yul\":9883:9950   */\n      tag_215\n        /* \"#utility.yul\":9947:9949   */\n      0x15\n        /* \"#utility.yul\":9942:9945   */\n      dup4\n        /* \"#utility.yul\":9883:9950   */\n      tag_100\n      jump\t// in\n    tag_215:\n        /* \"#utility.yul\":9876:9950   */\n      swap2\n      pop\n        /* \"#utility.yul\":9959:10052   */\n      tag_216\n        /* \"#utility.yul\":10048:10051   */\n      dup3\n        /* \"#utility.yul\":9959:10052   */\n      tag_117\n      jump\t// in\n    tag_216:\n        /* \"#utility.yul\":10077:10079   */\n      0x20\n        /* \"#utility.yul\":10072:10075   */\n      dup3\n        /* \"#utility.yul\":10068:10080   */\n      add\n        /* \"#utility.yul\":10061:10080   */\n      swap1\n      pop\n        /* \"#utility.yul\":9720:10086   */\n      swap2\n      swap1\n      pop\n      jump\t// out\n        /* \"#utility.yul\":10092:10511   */\n    tag_70:\n        /* \"#utility.yul\":10258:10262   */\n      0x00\n        /* \"#utility.yul\":10296:10298   */\n      0x20\n        /* \"#utility.yul\":10285:10294   */\n      dup3\n        /* \"#utility.yul\":10281:10299   */\n      add\n        /* \"#utility.yul\":10273:10299   */\n      swap1\n      pop\n        /* \"#utility.yul\":10345:10354   */\n      dup2\n        /* \"#utility.yul\":10339:10343   */\n      dup2\n        /* \"#utility.yul\":10335:10355   */\n      sub\n        /* \"#utility.yul\":10331:10332   */\n      0x00\n        /* \"#utility.yul\":10320:10329   */\n      dup4\n        /* \"#utility.yul\":10316:10333   */\n      add\n        /* \"#utility.yul\":10309:10356   */\n      mstore\n        /* \"#utility.yul\":10373:10504   */\n      tag_218\n        /* \"#utility.yul\":10499:10503   */\n      dup2\n        /* \"#utility.yul\":10373:10504   */\n      tag_118\n      jump\t// in\n    tag_218:\n        /* \"#utility.yul\":10365:10504   */\n      swap1\n      pop\n        /* \"#utility.yul\":10092:10511   */\n      swap2\n      swap1\n      pop\n      jump\t// out\n        /* \"#utility.yul\":10517:10683   */\n    tag_119:\n        /* \"#utility.yul\":10657:10675   */\n      0x6e6f7420656e6f75676820746f6b656e00000000000000000000000000000000\n        /* \"#utility.yul\":10653:10654   */\n      0x00\n        /* \"#utility.yul\":10645:10651   */\n      dup3\n        /* \"#utility.yul\":10641:10655   */\n      add\n        /* \"#utility.yul\":10634:10676   */\n      mstore\n        /* \"#utility.yul\":10517:10683   */\n      pop\n      jump\t// out\n        /* \"#utility.yul\":10689:11055   */\n    tag_120:\n        /* \"#utility.yul\":10831:10834   */\n      0x00\n        /* \"#utility.yul\":10852:10919   */\n      tag_221\n        /* \"#utility.yul\":10916:10918   */\n      0x10\n        /* \"#utility.yul\":10911:10914   */\n      dup4\n        /* \"#utility.yul\":10852:10919   */\n      tag_100\n      jump\t// in\n    tag_221:\n        /* \"#utility.yul\":10845:10919   */\n      swap2\n      pop\n        /* \"#utility.yul\":10928:11021   */\n      tag_222\n        /* \"#utility.yul\":11017:11020   */\n      dup3\n        /* \"#utility.yul\":10928:11021   */\n      tag_119\n      jump\t// in\n    tag_222:\n        /* \"#utility.yul\":11046:11048   */\n      0x20\n        /* \"#utility.yul\":11041:11044   */\n      dup3\n        /* \"#utility.yul\":11037:11049   */\n      add\n        /* \"#utility.yul\":11030:11049   */\n      swap1\n      pop\n        /* \"#utility.yul\":10689:11055   */\n      swap2\n      swap1\n      pop\n      jump\t// out\n        /* \"#utility.yul\":11061:11480   */\n    tag_77:\n        /* \"#utility.yul\":11227:11231   */\n      0x00\n        /* \"#utility.yul\":11265:11267   */\n      0x20\n        /* \"#utility.yul\":11254:11263   */\n      dup3\n        /* \"#utility.yul\":11250:11268   */\n      add\n        /* \"#utility.yul\":11242:11268   */\n      swap1\n      pop\n        /* \"#utility.yul\":11314:11323   */\n      dup2\n        /* \"#utility.yul\":11308:11312   */\n      dup2\n        /* \"#utility.yul\":11304:11324   */\n      sub\n        /* \"#utility.yul\":11300:11301   */\n      0x00\n        /* \"#utility.yul\":11289:11298   */\n      dup4\n        /* \"#utility.yul\":11285:11302   */\n      add\n        /* \"#utility.yul\":11278:11325   */\n      mstore\n        /* \"#utility.yul\":11342:11473   */\n      tag_224\n        /* \"#utility.yul\":11468:11472   */\n      dup2\n        /* \"#utility.yul\":11342:11473   */\n      tag_120\n      jump\t// in\n    tag_224:\n        /* \"#utility.yul\":11334:11473   */\n      swap1\n      pop\n        /* \"#utility.yul\":11061:11480   */\n      swap2\n      swap1\n      pop\n      jump\t// out\n        /* \"#utility.yul\":11486:11928   */\n    tag_79:\n        /* \"#utility.yul\":11635:11639   */\n      0x00\n        /* \"#utility.yul\":11673:11675   */\n      0x60\n        /* \"#utility.yul\":11662:11671   */\n      dup3\n        /* \"#utility.yul\":11658:11676   */\n      add\n        /* \"#utility.yul\":11650:11676   */\n      swap1\n      pop\n        /* \"#utility.yul\":11686:11757   */\n      tag_226\n        /* \"#utility.yul\":11754:11755   */\n      0x00\n        /* \"#utility.yul\":11743:11752   */\n      dup4\n        /* \"#utility.yul\":11739:11756   */\n      add\n        /* \"#utility.yul\":11730:11736   */\n      dup7\n        /* \"#utility.yul\":11686:11757   */\n      tag_108\n      jump\t// in\n    tag_226:\n        /* \"#utility.yul\":11767:11839   */\n      tag_227\n        /* \"#utility.yul\":11835:11837   */\n      0x20\n        /* \"#utility.yul\":11824:11833   */\n      dup4\n        /* \"#utility.yul\":11820:11838   */\n      add\n        /* \"#utility.yul\":11811:11817   */\n      dup6\n        /* \"#utility.yul\":11767:11839   */\n      tag_108\n      jump\t// in\n    tag_227:\n        /* \"#utility.yul\":11849:11921   */\n      tag_228\n        /* \"#utility.yul\":11917:11919   */\n      0x40\n        /* \"#utility.yul\":11906:11915   */\n      dup4\n        /* \"#utility.yul\":11902:11920   */\n      add\n        /* \"#utility.yul\":11893:11899   */\n      dup5\n        /* \"#utility.yul\":11849:11921   */\n      tag_97\n      jump\t// in\n    tag_228:\n        /* \"#utility.yul\":11486:11928   */\n      swap5\n      swap4\n      pop\n      pop\n      pop\n      pop\n      jump\t// out\n        /* \"#utility.yul\":11934:12102   */\n    tag_121:\n        /* \"#utility.yul\":12074:12094   */\n      0x6661696c656420746f207472616e736665720000000000000000000000000000\n        /* \"#utility.yul\":12070:12071   */\n      0x00\n        /* \"#utility.yul\":12062:12068   */\n      dup3\n        /* \"#utility.yul\":12058:12072   */\n      add\n        /* \"#utility.yul\":12051:12095   */\n      mstore\n        /* \"#utility.yul\":11934:12102   */\n      pop\n      jump\t// out\n        /* \"#utility.yul\":12108:12474   */\n    tag_122:\n        /* \"#utility.yul\":12250:12253   */\n      0x00\n        /* \"#utility.yul\":12271:12338   */\n      tag_231\n        /* \"#utility.yul\":12335:12337   */\n      0x12\n        /* \"#utility.yul\":12330:12333   */\n      dup4\n        /* \"#utility.yul\":12271:12338   */\n      tag_100\n      jump\t// in\n    tag_231:\n        /* \"#utility.yul\":12264:12338   */\n      swap2\n      pop\n        /* \"#utility.yul\":12347:12440   */\n      tag_232\n        /* \"#utility.yul\":12436:12439   */\n      dup3\n        /* \"#utility.yul\":12347:12440   */\n      tag_121\n      jump\t// in\n    tag_232:\n        /* \"#utility.yul\":12465:12467   */\n      0x20\n        /* \"#utility.yul\":12460:12463   */\n      dup3\n        /* \"#utility.yul\":12456:12468   */\n      add\n        /* \"#utility.yul\":12449:12468   */\n      swap1\n      pop\n        /* \"#utility.yul\":12108:12474   */\n      swap2\n      swap1\n      pop\n      jump\t// out\n        /* \"#utility.yul\":12480:12899   */\n    tag_85:\n        /* \"#utility.yul\":12646:12650   */\n      0x00\n        /* \"#utility.yul\":12684:12686   */\n      0x20\n        /* \"#utility.yul\":12673:12682   */\n      dup3\n        /* \"#utility.yul\":12669:12687   */\n      add\n        /* \"#utility.yul\":12661:12687   */\n      swap1\n      pop\n        /* \"#utility.yul\":12733:12742   */\n      dup2\n        /* \"#utility.yul\":12727:12731   */\n      dup2\n        /* \"#utility.yul\":12723:12743   */\n      sub\n        /* \"#utility.yul\":12719:12720   */\n      0x00\n        /* \"#utility.yul\":12708:12717   */\n      dup4\n        /* \"#utility.yul\":12704:12721   */\n      add\n        /* \"#utility.yul\":12697:12744   */\n      mstore\n        /* \"#utility.yul\":12761:12892   */\n      tag_234\n        /* \"#utility.yul\":12887:12891   */\n      dup2\n        /* \"#utility.yul\":12761:12892   */\n      tag_122\n      jump\t// in\n    tag_234:\n        /* \"#utility.yul\":12753:12892   */\n      swap1\n      pop\n        /* \"#utility.yul\":12480:12899   */\n      swap2\n      swap1\n      pop\n      jump\t// out\n        /* \"#utility.yul\":12905:13096   */\n    tag_87:\n        /* \"#utility.yul\":12945:12948   */\n      0x00\n        /* \"#utility.yul\":12964:12984   */\n      tag_236\n        /* \"#utility.yul\":12982:12983   */\n      dup3\n        /* \"#utility.yul\":12964:12984   */\n      tag_96\n      jump\t// in\n    tag_236:\n        /* \"#utility.yul\":12959:12984   */\n      swap2\n      pop\n        /* \"#utility.yul\":12998:13018   */\n      tag_237\n        /* \"#utility.yul\":13016:13017   */\n      dup4\n        /* \"#utility.yul\":12998:13018   */\n      tag_96\n      jump\t// in\n    tag_237:\n        /* \"#utility.yul\":12993:13018   */\n      swap3\n      pop\n        /* \"#utility.yul\":13041:13042   */\n      dup3\n        /* \"#utility.yul\":13038:13039   */\n      dup3\n        /* \"#utility.yul\":13034:13043   */\n      add\n        /* \"#utility.yul\":13027:13043   */\n      swap1\n      pop\n        /* \"#utility.yul\":13062:13065   */\n      dup1\n        /* \"#utility.yul\":13059:13060   */\n      dup3\n        /* \"#utility.yul\":13056:13066   */\n      gt\n        /* \"#utility.yul\":13053:13089   */\n      iszero\n      tag_238\n      jumpi\n        /* \"#utility.yul\":13069:13087   */\n      tag_239\n      tag_107\n      jump\t// in\n    tag_239:\n        /* \"#utility.yul\":13053:13089   */\n    tag_238:\n        /* \"#utility.yul\":12905:13096   */\n      swap3\n      swap2\n      pop\n      pop\n      jump\t// out\n\n    auxdata: 0xa2646970667358221220d74fb43fc1509183a389cbf06ece637fd01694dc3b8df87a5ceb22cb4bfb5df564736f6c63430008180033\n}\n",
				"bytecode": {
					"linkReferences": {},
					"object": "608060405234801561000f575f80fd5b50604051620010363803806200103683398181016040528101906100339190610116565b805f806101000a81548173ffffffffffffffffffffffffffffffffffffffff021916908373ffffffffffffffffffffffffffffffffffffffff1602179055503360015f6101000a81548173ffffffffffffffffffffffffffffffffffffffff021916908373ffffffffffffffffffffffffffffffffffffffff16021790555050610141565b5f80fd5b5f73ffffffffffffffffffffffffffffffffffffffff82169050919050565b5f6100e5826100bc565b9050919050565b6100f5816100db565b81146100ff575f80fd5b50565b5f81519050610110816100ec565b92915050565b5f6020828403121561012b5761012a6100b8565b5b5f61013884828501610102565b91505092915050565b610ee7806200014f5f395ff3fe608060405234801561000f575f80fd5b5060043610610055575f3560e01c80630a9bfef5146100595780632e1a7d4d1461008957806333f707d1146100a557806350312c9e146100c1578063b6b55f25146100df575b5f80fd5b610073600480360381019061006e91906108fa565b6100fb565b604051610080919061093d565b60405180910390f35b6100a3600480360381019061009e9190610980565b610141565b005b6100bf60048036038101906100ba9190610980565b6103de565b005b6100c961050b565b6040516100d6919061093d565b60405180910390f35b6100f960048036038101906100f49190610980565b6105a9565b005b5f60025f8373ffffffffffffffffffffffffffffffffffffffff1673ffffffffffffffffffffffffffffffffffffffff1681526020019081526020015f20549050919050565b5f73ffffffffffffffffffffffffffffffffffffffff163373ffffffffffffffffffffffffffffffffffffffff16036101af576040517f08c379a00000000000000000000000000000000000000000000000000000000081526004016101a690610a05565b60405180910390fd5b5f81116101f1576040517f08c379a00000000000000000000000000000000000000000000000000000000081526004016101e890610a6d565b60405180910390fd5b5f60025f3373ffffffffffffffffffffffffffffffffffffffff1673ffffffffffffffffffffffffffffffffffffffff1681526020019081526020015f2054905081811015610275576040517f08c379a000000000000000000000000000000000000000000000000000000000815260040161026c90610ad5565b60405180910390fd5b8160025f3373ffffffffffffffffffffffffffffffffffffffff1673ffffffffffffffffffffffffffffffffffffffff1681526020019081526020015f205f8282546102c19190610b20565b925050819055505f8054906101000a900473ffffffffffffffffffffffffffffffffffffffff1673ffffffffffffffffffffffffffffffffffffffff1663a9059cbb33846040518363ffffffff1660e01b8152600401610322929190610b62565b6020604051808303815f875af115801561033e573d5f803e3d5ffd5b505050506040513d601f19601f820116820180604052508101906103629190610bbe565b6103a1576040517f08c379a000000000000000000000000000000000000000000000000000000000815260040161039890610c33565b60405180910390fd5b7f84e742a3ea03623687a5febaa797636d728230721d4b3d1405d19fbbc16298d933836040516103d2929190610b62565b60405180910390a15050565b60015f9054906101000a900473ffffffffffffffffffffffffffffffffffffffff1673ffffffffffffffffffffffffffffffffffffffff163373ffffffffffffffffffffffffffffffffffffffff161461046d576040517f08c379a000000000000000000000000000000000000000000000000000000000815260040161046490610c9b565b60405180910390fd5b5f8054906101000a900473ffffffffffffffffffffffffffffffffffffffff1673ffffffffffffffffffffffffffffffffffffffff1663a9059cbb33836040518363ffffffff1660e01b81526004016104c7929190610b62565b6020604051808303815f875af11580156104e3573d5f803e3d5ffd5b505050506040513d601f19601f820116820180604052508101906105079190610bbe565b5050565b5f805f9054906101000a900473ffffffffffffffffffffffffffffffffffffffff1673ffffffffffffffffffffffffffffffffffffffff166370a08231306040518263ffffffff1660e01b81526004016105659190610cb9565b602060405180830381865afa158015610580573d5f803e3d5ffd5b505050506040513d601f19601f820116820180604052508101906105a49190610ce6565b905090565b5f73ffffffffffffffffffffffffffffffffffffffff163373ffffffffffffffffffffffffffffffffffffffff1603610617576040517f08c379a000000000000000000000000000000000000000000000000000000000815260040161060e90610a05565b60405180910390fd5b5f8111610659576040517f08c379a000000000000000000000000000000000000000000000000000000000815260040161065090610d5b565b60405180910390fd5b805f8054906101000a900473ffffffffffffffffffffffffffffffffffffffff1673ffffffffffffffffffffffffffffffffffffffff166370a08231336040518263ffffffff1660e01b81526004016106b29190610cb9565b602060405180830381865afa1580156106cd573d5f803e3d5ffd5b505050506040513d601f19601f820116820180604052508101906106f19190610ce6565b1015610732576040517f08c379a000000000000000000000000000000000000000000000000000000000815260040161072990610dc3565b60405180910390fd5b5f8054906101000a900473ffffffffffffffffffffffffffffffffffffffff1673ffffffffffffffffffffffffffffffffffffffff166323b872dd3330846040518463ffffffff1660e01b815260040161078e93929190610de1565b6020604051808303815f875af11580156107aa573d5f803e3d5ffd5b505050506040513d601f19601f820116820180604052508101906107ce9190610bbe565b61080d576040517f08c379a000000000000000000000000000000000000000000000000000000000815260040161080490610e60565b60405180910390fd5b8060025f3373ffffffffffffffffffffffffffffffffffffffff1673ffffffffffffffffffffffffffffffffffffffff1681526020019081526020015f205f8282546108599190610e7e565b925050819055507f62d8fec9f61d4b47a4873e3c6baf9e3834c5d36a06c7035b3e2f4239b6fd6d693382604051610891929190610b62565b60405180910390a150565b5f80fd5b5f73ffffffffffffffffffffffffffffffffffffffff82169050919050565b5f6108c9826108a0565b9050919050565b6108d9816108bf565b81146108e3575f80fd5b50565b5f813590506108f4816108d0565b92915050565b5f6020828403121561090f5761090e61089c565b5b5f61091c848285016108e6565b91505092915050565b5f819050919050565b61093781610925565b82525050565b5f6020820190506109505f83018461092e565b92915050565b61095f81610925565b8114610969575f80fd5b50565b5f8135905061097a81610956565b92915050565b5f602082840312156109955761099461089c565b5b5f6109a28482850161096c565b91505092915050565b5f82825260208201905092915050565b7f61646472657373207a65726f20646574656374656400000000000000000000005f82015250565b5f6109ef6015836109ab565b91506109fa826109bb565b602082019050919050565b5f6020820190508181035f830152610a1c816109e3565b9050919050565b7f63616e2774207769746864726177207a65726f2076616c7565000000000000005f82015250565b5f610a576019836109ab565b9150610a6282610a23565b602082019050919050565b5f6020820190508181035f830152610a8481610a4b565b9050919050565b7f696e73756666696369656e742066756e647300000000000000000000000000005f82015250565b5f610abf6012836109ab565b9150610aca82610a8b565b602082019050919050565b5f6020820190508181035f830152610aec81610ab3565b9050919050565b7f4e487b71000000000000000000000000000000000000000000000000000000005f52601160045260245ffd5b5f610b2a82610925565b9150610b3583610925565b9250828203905081811115610b4d57610b4c610af3565b5b92915050565b610b5c816108bf565b82525050565b5f604082019050610b755f830185610b53565b610b82602083018461092e565b9392505050565b5f8115159050919050565b610b9d81610b89565b8114610ba7575f80fd5b50565b5f81519050610bb881610b94565b92915050565b5f60208284031215610bd357610bd261089c565b5b5f610be084828501610baa565b91505092915050565b7f6661696c656420746f20776974686472617700000000000000000000000000005f82015250565b5f610c1d6012836109ab565b9150610c2882610be9565b602082019050919050565b5f6020820190508181035f830152610c4a81610c11565b9050919050565b7f6e6f74206f776e657200000000000000000000000000000000000000000000005f82015250565b5f610c856009836109ab565b9150610c9082610c51565b602082019050919050565b5f6020820190508181035f830152610cb281610c79565b9050919050565b5f602082019050610ccc5f830184610b53565b92915050565b5f81519050610ce081610956565b92915050565b5f60208284031215610cfb57610cfa61089c565b5b5f610d0884828501610cd2565b91505092915050565b7f63616e27742073617665207a65726f2076616c756500000000000000000000005f82015250565b5f610d456015836109ab565b9150610d5082610d11565b602082019050919050565b5f6020820190508181035f830152610d7281610d39565b9050919050565b7f6e6f7420656e6f75676820746f6b656e000000000000000000000000000000005f82015250565b5f610dad6010836109ab565b9150610db882610d79565b602082019050919050565b5f6020820190508181035f830152610dda81610da1565b9050919050565b5f606082019050610df45f830186610b53565b610e016020830185610b53565b610e0e604083018461092e565b949350505050565b7f6661696c656420746f207472616e7366657200000000000000000000000000005f82015250565b5f610e4a6012836109ab565b9150610e5582610e16565b602082019050919050565b5f6020820190508181035f830152610e7781610e3e565b9050919050565b5f610e8882610925565b9150610e9383610925565b9250828201905080821115610eab57610eaa610af3565b5b9291505056fea2646970667358221220d74fb43fc1509183a389cbf06ece637fd01694dc3b8df87a5ceb22cb4bfb5df564736f6c63430008180033",
					"opcodes": "PUSH1 0x80 PUSH1 0x40 MSTORE CALLVALUE DUP1 ISZERO PUSH2 0xF JUMPI PUSH0 DUP1 REVERT JUMPDEST POP PUSH1 0x40 MLOAD PUSH3 0x1036 CODESIZE SUB DUP1 PUSH3 0x1036 DUP4 CODECOPY DUP2 DUP2 ADD PUSH1 0x40 MSTORE DUP2 ADD SWAP1 PUSH2 0x33 SWAP2 SWAP1 PUSH2 0x116 JUMP JUMPDEST DUP1 PUSH0 DUP1 PUSH2 0x100 EXP DUP2 SLOAD DUP2 PUSH20 0xFFFFFFFFFFFFFFFFFFFFFFFFFFFFFFFFFFFFFFFF MUL NOT AND SWAP1 DUP4 PUSH20 0xFFFFFFFFFFFFFFFFFFFFFFFFFFFFFFFFFFFFFFFF AND MUL OR SWAP1 SSTORE POP CALLER PUSH1 0x1 PUSH0 PUSH2 0x100 EXP DUP2 SLOAD DUP2 PUSH20 0xFFFFFFFFFFFFFFFFFFFFFFFFFFFFFFFFFFFFFFFF MUL NOT AND SWAP1 DUP4 PUSH20 0xFFFFFFFFFFFFFFFFFFFFFFFFFFFFFFFFFFFFFFFF AND MUL OR SWAP1 SSTORE POP POP PUSH2 0x141 JUMP JUMPDEST PUSH0 DUP1 REVERT JUMPDEST PUSH0 PUSH20 0xFFFFFFFFFFFFFFFFFFFFFFFFFFFFFFFFFFFFFFFF DUP3 AND SWAP1 POP SWAP2 SWAP1 POP JUMP JUMPDEST PUSH0 PUSH2 0xE5 DUP3 PUSH2 0xBC JUMP JUMPDEST SWAP1 POP SWAP2 SWAP1 POP JUMP JUMPDEST PUSH2 0xF5 DUP2 PUSH2 0xDB JUMP JUMPDEST DUP2 EQ PUSH2 0xFF JUMPI PUSH0 DUP1 REVERT JUMPDEST POP JUMP JUMPDEST PUSH0 DUP2 MLOAD SWAP1 POP PUSH2 0x110 DUP2 PUSH2 0xEC JUMP JUMPDEST SWAP3 SWAP2 POP POP JUMP JUMPDEST PUSH0 PUSH1 0x20 DUP3 DUP5 SUB SLT ISZERO PUSH2 0x12B JUMPI PUSH2 0x12A PUSH2 0xB8 JUMP JUMPDEST JUMPDEST PUSH0 PUSH2 0x138 DUP5 DUP3 DUP6 ADD PUSH2 0x102 JUMP JUMPDEST SWAP2 POP POP SWAP3 SWAP2 POP POP JUMP JUMPDEST PUSH2 0xEE7 DUP1 PUSH3 0x14F PUSH0 CODECOPY PUSH0 RETURN INVALID PUSH1 0x80 PUSH1 0x40 MSTORE CALLVALUE DUP1 ISZERO PUSH2 0xF JUMPI PUSH0 DUP1 REVERT JUMPDEST POP PUSH1 0x4 CALLDATASIZE LT PUSH2 0x55 JUMPI PUSH0 CALLDATALOAD PUSH1 0xE0 SHR DUP1 PUSH4 0xA9BFEF5 EQ PUSH2 0x59 JUMPI DUP1 PUSH4 0x2E1A7D4D EQ PUSH2 0x89 JUMPI DUP1 PUSH4 0x33F707D1 EQ PUSH2 0xA5 JUMPI DUP1 PUSH4 0x50312C9E EQ PUSH2 0xC1 JUMPI DUP1 PUSH4 0xB6B55F25 EQ PUSH2 0xDF JUMPI JUMPDEST PUSH0 DUP1 REVERT JUMPDEST PUSH2 0x73 PUSH1 0x4 DUP1 CALLDATASIZE SUB DUP2 ADD SWAP1 PUSH2 0x6E SWAP2 SWAP1 PUSH2 0x8FA JUMP JUMPDEST PUSH2 0xFB JUMP JUMPDEST PUSH1 0x40 MLOAD PUSH2 0x80 SWAP2 SWAP1 PUSH2 0x93D JUMP JUMPDEST PUSH1 0x40 MLOAD DUP1 SWAP2 SUB SWAP1 RETURN JUMPDEST PUSH2 0xA3 PUSH1 0x4 DUP1 CALLDATASIZE SUB DUP2 ADD SWAP1 PUSH2 0x9E SWAP2 SWAP1 PUSH2 0x980 JUMP JUMPDEST PUSH2 0x141 JUMP JUMPDEST STOP JUMPDEST PUSH2 0xBF PUSH1 0x4 DUP1 CALLDATASIZE SUB DUP2 ADD SWAP1 PUSH2 0xBA SWAP2 SWAP1 PUSH2 0x980 JUMP JUMPDEST PUSH2 0x3DE JUMP JUMPDEST STOP JUMPDEST PUSH2 0xC9 PUSH2 0x50B JUMP JUMPDEST PUSH1 0x40 MLOAD PUSH2 0xD6 SWAP2 SWAP1 PUSH2 0x93D JUMP JUMPDEST PUSH1 0x40 MLOAD DUP1 SWAP2 SUB SWAP1 RETURN JUMPDEST PUSH2 0xF9 PUSH1 0x4 DUP1 CALLDATASIZE SUB DUP2 ADD SWAP1 PUSH2 0xF4 SWAP2 SWAP1 PUSH2 0x980 JUMP JUMPDEST PUSH2 0x5A9 JUMP JUMPDEST STOP JUMPDEST PUSH0 PUSH1 0x2 PUSH0 DUP4 PUSH20 0xFFFFFFFFFFFFFFFFFFFFFFFFFFFFFFFFFFFFFFFF AND PUSH20 0xFFFFFFFFFFFFFFFFFFFFFFFFFFFFFFFFFFFFFFFF AND DUP2 MSTORE PUSH1 0x20 ADD SWAP1 DUP2 MSTORE PUSH1 0x20 ADD PUSH0 KECCAK256 SLOAD SWAP1 POP SWAP2 SWAP1 POP JUMP JUMPDEST PUSH0 PUSH20 0xFFFFFFFFFFFFFFFFFFFFFFFFFFFFFFFFFFFFFFFF AND CALLER PUSH20 0xFFFFFFFFFFFFFFFFFFFFFFFFFFFFFFFFFFFFFFFF AND SUB PUSH2 0x1AF JUMPI PUSH1 0x40 MLOAD PUSH32 0x8C379A000000000000000000000000000000000000000000000000000000000 DUP2 MSTORE PUSH1 0x4 ADD PUSH2 0x1A6 SWAP1 PUSH2 0xA05 JUMP JUMPDEST PUSH1 0x40 MLOAD DUP1 SWAP2 SUB SWAP1 REVERT JUMPDEST PUSH0 DUP2 GT PUSH2 0x1F1 JUMPI PUSH1 0x40 MLOAD PUSH32 0x8C379A000000000000000000000000000000000000000000000000000000000 DUP2 MSTORE PUSH1 0x4 ADD PUSH2 0x1E8 SWAP1 PUSH2 0xA6D JUMP JUMPDEST PUSH1 0x40 MLOAD DUP1 SWAP2 SUB SWAP1 REVERT JUMPDEST PUSH0 PUSH1 0x2 PUSH0 CALLER PUSH20 0xFFFFFFFFFFFFFFFFFFFFFFFFFFFFFFFFFFFFFFFF AND PUSH20 0xFFFFFFFFFFFFFFFFFFFFFFFFFFFFFFFFFFFFFFFF AND DUP2 MSTORE PUSH1 0x20 ADD SWAP1 DUP2 MSTORE PUSH1 0x20 ADD PUSH0 KECCAK256 SLOAD SWAP1 POP DUP2 DUP2 LT ISZERO PUSH2 0x275 JUMPI PUSH1 0x40 MLOAD PUSH32 0x8C379A000000000000000000000000000000000000000000000000000000000 DUP2 MSTORE PUSH1 0x4 ADD PUSH2 0x26C SWAP1 PUSH2 0xAD5 JUMP JUMPDEST PUSH1 0x40 MLOAD DUP1 SWAP2 SUB SWAP1 REVERT JUMPDEST DUP2 PUSH1 0x2 PUSH0 CALLER PUSH20 0xFFFFFFFFFFFFFFFFFFFFFFFFFFFFFFFFFFFFFFFF AND PUSH20 0xFFFFFFFFFFFFFFFFFFFFFFFFFFFFFFFFFFFFFFFF AND DUP2 MSTORE PUSH1 0x20 ADD SWAP1 DUP2 MSTORE PUSH1 0x20 ADD PUSH0 KECCAK256 PUSH0 DUP3 DUP3 SLOAD PUSH2 0x2C1 SWAP2 SWAP1 PUSH2 0xB20 JUMP JUMPDEST SWAP3 POP POP DUP2 SWAP1 SSTORE POP PUSH0 DUP1 SLOAD SWAP1 PUSH2 0x100 EXP SWAP1 DIV PUSH20 0xFFFFFFFFFFFFFFFFFFFFFFFFFFFFFFFFFFFFFFFF AND PUSH20 0xFFFFFFFFFFFFFFFFFFFFFFFFFFFFFFFFFFFFFFFF AND PUSH4 0xA9059CBB CALLER DUP5 PUSH1 0x40 MLOAD DUP4 PUSH4 0xFFFFFFFF AND PUSH1 0xE0 SHL DUP2 MSTORE PUSH1 0x4 ADD PUSH2 0x322 SWAP3 SWAP2 SWAP1 PUSH2 0xB62 JUMP JUMPDEST PUSH1 0x20 PUSH1 0x40 MLOAD DUP1 DUP4 SUB DUP2 PUSH0 DUP8 GAS CALL ISZERO DUP1 ISZERO PUSH2 0x33E JUMPI RETURNDATASIZE PUSH0 DUP1 RETURNDATACOPY RETURNDATASIZE PUSH0 REVERT JUMPDEST POP POP POP POP PUSH1 0x40 MLOAD RETURNDATASIZE PUSH1 0x1F NOT PUSH1 0x1F DUP3 ADD AND DUP3 ADD DUP1 PUSH1 0x40 MSTORE POP DUP2 ADD SWAP1 PUSH2 0x362 SWAP2 SWAP1 PUSH2 0xBBE JUMP JUMPDEST PUSH2 0x3A1 JUMPI PUSH1 0x40 MLOAD PUSH32 0x8C379A000000000000000000000000000000000000000000000000000000000 DUP2 MSTORE PUSH1 0x4 ADD PUSH2 0x398 SWAP1 PUSH2 0xC33 JUMP JUMPDEST PUSH1 0x40 MLOAD DUP1 SWAP2 SUB SWAP1 REVERT JUMPDEST PUSH32 0x84E742A3EA03623687A5FEBAA797636D728230721D4B3D1405D19FBBC16298D9 CALLER DUP4 PUSH1 0x40 MLOAD PUSH2 0x3D2 SWAP3 SWAP2 SWAP1 PUSH2 0xB62 JUMP JUMPDEST PUSH1 0x40 MLOAD DUP1 SWAP2 SUB SWAP1 LOG1 POP POP JUMP JUMPDEST PUSH1 0x1 PUSH0 SWAP1 SLOAD SWAP1 PUSH2 0x100 EXP SWAP1 DIV PUSH20 0xFFFFFFFFFFFFFFFFFFFFFFFFFFFFFFFFFFFFFFFF AND PUSH20 0xFFFFFFFFFFFFFFFFFFFFFFFFFFFFFFFFFFFFFFFF AND CALLER PUSH20 0xFFFFFFFFFFFFFFFFFFFFFFFFFFFFFFFFFFFFFFFF AND EQ PUSH2 0x46D JUMPI PUSH1 0x40 MLOAD PUSH32 0x8C379A000000000000000000000000000000000000000000000000000000000 DUP2 MSTORE PUSH1 0x4 ADD PUSH2 0x464 SWAP1 PUSH2 0xC9B JUMP JUMPDEST PUSH1 0x40 MLOAD DUP1 SWAP2 SUB SWAP1 REVERT JUMPDEST PUSH0 DUP1 SLOAD SWAP1 PUSH2 0x100 EXP SWAP1 DIV PUSH20 0xFFFFFFFFFFFFFFFFFFFFFFFFFFFFFFFFFFFFFFFF AND PUSH20 0xFFFFFFFFFFFFFFFFFFFFFFFFFFFFFFFFFFFFFFFF AND PUSH4 0xA9059CBB CALLER DUP4 PUSH1 0x40 MLOAD DUP4 PUSH4 0xFFFFFFFF AND PUSH1 0xE0 SHL DUP2 MSTORE PUSH1 0x4 ADD PUSH2 0x4C7 SWAP3 SWAP2 SWAP1 PUSH2 0xB62 JUMP JUMPDEST PUSH1 0x20 PUSH1 0x40 MLOAD DUP1 DUP4 SUB DUP2 PUSH0 DUP8 GAS CALL ISZERO DUP1 ISZERO PUSH2 0x4E3 JUMPI RETURNDATASIZE PUSH0 DUP1 RETURNDATACOPY RETURNDATASIZE PUSH0 REVERT JUMPDEST POP POP POP POP PUSH1 0x40 MLOAD RETURNDATASIZE PUSH1 0x1F NOT PUSH1 0x1F DUP3 ADD AND DUP3 ADD DUP1 PUSH1 0x40 MSTORE POP DUP2 ADD SWAP1 PUSH2 0x507 SWAP2 SWAP1 PUSH2 0xBBE JUMP JUMPDEST POP POP JUMP JUMPDEST PUSH0 DUP1 PUSH0 SWAP1 SLOAD SWAP1 PUSH2 0x100 EXP SWAP1 DIV PUSH20 0xFFFFFFFFFFFFFFFFFFFFFFFFFFFFFFFFFFFFFFFF AND PUSH20 0xFFFFFFFFFFFFFFFFFFFFFFFFFFFFFFFFFFFFFFFF AND PUSH4 0x70A08231 ADDRESS PUSH1 0x40 MLOAD DUP3 PUSH4 0xFFFFFFFF AND PUSH1 0xE0 SHL DUP2 MSTORE PUSH1 0x4 ADD PUSH2 0x565 SWAP2 SWAP1 PUSH2 0xCB9 JUMP JUMPDEST PUSH1 0x20 PUSH1 0x40 MLOAD DUP1 DUP4 SUB DUP2 DUP7 GAS STATICCALL ISZERO DUP1 ISZERO PUSH2 0x580 JUMPI RETURNDATASIZE PUSH0 DUP1 RETURNDATACOPY RETURNDATASIZE PUSH0 REVERT JUMPDEST POP POP POP POP PUSH1 0x40 MLOAD RETURNDATASIZE PUSH1 0x1F NOT PUSH1 0x1F DUP3 ADD AND DUP3 ADD DUP1 PUSH1 0x40 MSTORE POP DUP2 ADD SWAP1 PUSH2 0x5A4 SWAP2 SWAP1 PUSH2 0xCE6 JUMP JUMPDEST SWAP1 POP SWAP1 JUMP JUMPDEST PUSH0 PUSH20 0xFFFFFFFFFFFFFFFFFFFFFFFFFFFFFFFFFFFFFFFF AND CALLER PUSH20 0xFFFFFFFFFFFFFFFFFFFFFFFFFFFFFFFFFFFFFFFF AND SUB PUSH2 0x617 JUMPI PUSH1 0x40 MLOAD PUSH32 0x8C379A000000000000000000000000000000000000000000000000000000000 DUP2 MSTORE PUSH1 0x4 ADD PUSH2 0x60E SWAP1 PUSH2 0xA05 JUMP JUMPDEST PUSH1 0x40 MLOAD DUP1 SWAP2 SUB SWAP1 REVERT JUMPDEST PUSH0 DUP2 GT PUSH2 0x659 JUMPI PUSH1 0x40 MLOAD PUSH32 0x8C379A000000000000000000000000000000000000000000000000000000000 DUP2 MSTORE PUSH1 0x4 ADD PUSH2 0x650 SWAP1 PUSH2 0xD5B JUMP JUMPDEST PUSH1 0x40 MLOAD DUP1 SWAP2 SUB SWAP1 REVERT JUMPDEST DUP1 PUSH0 DUP1 SLOAD SWAP1 PUSH2 0x100 EXP SWAP1 DIV PUSH20 0xFFFFFFFFFFFFFFFFFFFFFFFFFFFFFFFFFFFFFFFF AND PUSH20 0xFFFFFFFFFFFFFFFFFFFFFFFFFFFFFFFFFFFFFFFF AND PUSH4 0x70A08231 CALLER PUSH1 0x40 MLOAD DUP3 PUSH4 0xFFFFFFFF AND PUSH1 0xE0 SHL DUP2 MSTORE PUSH1 0x4 ADD PUSH2 0x6B2 SWAP2 SWAP1 PUSH2 0xCB9 JUMP JUMPDEST PUSH1 0x20 PUSH1 0x40 MLOAD DUP1 DUP4 SUB DUP2 DUP7 GAS STATICCALL ISZERO DUP1 ISZERO PUSH2 0x6CD JUMPI RETURNDATASIZE PUSH0 DUP1 RETURNDATACOPY RETURNDATASIZE PUSH0 REVERT JUMPDEST POP POP POP POP PUSH1 0x40 MLOAD RETURNDATASIZE PUSH1 0x1F NOT PUSH1 0x1F DUP3 ADD AND DUP3 ADD DUP1 PUSH1 0x40 MSTORE POP DUP2 ADD SWAP1 PUSH2 0x6F1 SWAP2 SWAP1 PUSH2 0xCE6 JUMP JUMPDEST LT ISZERO PUSH2 0x732 JUMPI PUSH1 0x40 MLOAD PUSH32 0x8C379A000000000000000000000000000000000000000000000000000000000 DUP2 MSTORE PUSH1 0x4 ADD PUSH2 0x729 SWAP1 PUSH2 0xDC3 JUMP JUMPDEST PUSH1 0x40 MLOAD DUP1 SWAP2 SUB SWAP1 REVERT JUMPDEST PUSH0 DUP1 SLOAD SWAP1 PUSH2 0x100 EXP SWAP1 DIV PUSH20 0xFFFFFFFFFFFFFFFFFFFFFFFFFFFFFFFFFFFFFFFF AND PUSH20 0xFFFFFFFFFFFFFFFFFFFFFFFFFFFFFFFFFFFFFFFF AND PUSH4 0x23B872DD CALLER ADDRESS DUP5 PUSH1 0x40 MLOAD DUP5 PUSH4 0xFFFFFFFF AND PUSH1 0xE0 SHL DUP2 MSTORE PUSH1 0x4 ADD PUSH2 0x78E SWAP4 SWAP3 SWAP2 SWAP1 PUSH2 0xDE1 JUMP JUMPDEST PUSH1 0x20 PUSH1 0x40 MLOAD DUP1 DUP4 SUB DUP2 PUSH0 DUP8 GAS CALL ISZERO DUP1 ISZERO PUSH2 0x7AA JUMPI RETURNDATASIZE PUSH0 DUP1 RETURNDATACOPY RETURNDATASIZE PUSH0 REVERT JUMPDEST POP POP POP POP PUSH1 0x40 MLOAD RETURNDATASIZE PUSH1 0x1F NOT PUSH1 0x1F DUP3 ADD AND DUP3 ADD DUP1 PUSH1 0x40 MSTORE POP DUP2 ADD SWAP1 PUSH2 0x7CE SWAP2 SWAP1 PUSH2 0xBBE JUMP JUMPDEST PUSH2 0x80D JUMPI PUSH1 0x40 MLOAD PUSH32 0x8C379A000000000000000000000000000000000000000000000000000000000 DUP2 MSTORE PUSH1 0x4 ADD PUSH2 0x804 SWAP1 PUSH2 0xE60 JUMP JUMPDEST PUSH1 0x40 MLOAD DUP1 SWAP2 SUB SWAP1 REVERT JUMPDEST DUP1 PUSH1 0x2 PUSH0 CALLER PUSH20 0xFFFFFFFFFFFFFFFFFFFFFFFFFFFFFFFFFFFFFFFF AND PUSH20 0xFFFFFFFFFFFFFFFFFFFFFFFFFFFFFFFFFFFFFFFF AND DUP2 MSTORE PUSH1 0x20 ADD SWAP1 DUP2 MSTORE PUSH1 0x20 ADD PUSH0 KECCAK256 PUSH0 DUP3 DUP3 SLOAD PUSH2 0x859 SWAP2 SWAP1 PUSH2 0xE7E JUMP JUMPDEST SWAP3 POP POP DUP2 SWAP1 SSTORE POP PUSH32 0x62D8FEC9F61D4B47A4873E3C6BAF9E3834C5D36A06C7035B3E2F4239B6FD6D69 CALLER DUP3 PUSH1 0x40 MLOAD PUSH2 0x891 SWAP3 SWAP2 SWAP1 PUSH2 0xB62 JUMP JUMPDEST PUSH1 0x40 MLOAD DUP1 SWAP2 SUB SWAP1 LOG1 POP JUMP JUMPDEST PUSH0 DUP1 REVERT JUMPDEST PUSH0 PUSH20 0xFFFFFFFFFFFFFFFFFFFFFFFFFFFFFFFFFFFFFFFF DUP3 AND SWAP1 POP SWAP2 SWAP1 POP JUMP JUMPDEST PUSH0 PUSH2 0x8C9 DUP3 PUSH2 0x8A0 JUMP JUMPDEST SWAP1 POP SWAP2 SWAP1 POP JUMP JUMPDEST PUSH2 0x8D9 DUP2 PUSH2 0x8BF JUMP JUMPDEST DUP2 EQ PUSH2 0x8E3 JUMPI PUSH0 DUP1 REVERT JUMPDEST POP JUMP JUMPDEST PUSH0 DUP2 CALLDATALOAD SWAP1 POP PUSH2 0x8F4 DUP2 PUSH2 0x8D0 JUMP JUMPDEST SWAP3 SWAP2 POP POP JUMP JUMPDEST PUSH0 PUSH1 0x20 DUP3 DUP5 SUB SLT ISZERO PUSH2 0x90F JUMPI PUSH2 0x90E PUSH2 0x89C JUMP JUMPDEST JUMPDEST PUSH0 PUSH2 0x91C DUP5 DUP3 DUP6 ADD PUSH2 0x8E6 JUMP JUMPDEST SWAP2 POP POP SWAP3 SWAP2 POP POP JUMP JUMPDEST PUSH0 DUP2 SWAP1 POP SWAP2 SWAP1 POP JUMP JUMPDEST PUSH2 0x937 DUP2 PUSH2 0x925 JUMP JUMPDEST DUP3 MSTORE POP POP JUMP JUMPDEST PUSH0 PUSH1 0x20 DUP3 ADD SWAP1 POP PUSH2 0x950 PUSH0 DUP4 ADD DUP5 PUSH2 0x92E JUMP JUMPDEST SWAP3 SWAP2 POP POP JUMP JUMPDEST PUSH2 0x95F DUP2 PUSH2 0x925 JUMP JUMPDEST DUP2 EQ PUSH2 0x969 JUMPI PUSH0 DUP1 REVERT JUMPDEST POP JUMP JUMPDEST PUSH0 DUP2 CALLDATALOAD SWAP1 POP PUSH2 0x97A DUP2 PUSH2 0x956 JUMP JUMPDEST SWAP3 SWAP2 POP POP JUMP JUMPDEST PUSH0 PUSH1 0x20 DUP3 DUP5 SUB SLT ISZERO PUSH2 0x995 JUMPI PUSH2 0x994 PUSH2 0x89C JUMP JUMPDEST JUMPDEST PUSH0 PUSH2 0x9A2 DUP5 DUP3 DUP6 ADD PUSH2 0x96C JUMP JUMPDEST SWAP2 POP POP SWAP3 SWAP2 POP POP JUMP JUMPDEST PUSH0 DUP3 DUP3 MSTORE PUSH1 0x20 DUP3 ADD SWAP1 POP SWAP3 SWAP2 POP POP JUMP JUMPDEST PUSH32 0x61646472657373207A65726F2064657465637465640000000000000000000000 PUSH0 DUP3 ADD MSTORE POP JUMP JUMPDEST PUSH0 PUSH2 0x9EF PUSH1 0x15 DUP4 PUSH2 0x9AB JUMP JUMPDEST SWAP2 POP PUSH2 0x9FA DUP3 PUSH2 0x9BB JUMP JUMPDEST PUSH1 0x20 DUP3 ADD SWAP1 POP SWAP2 SWAP1 POP JUMP JUMPDEST PUSH0 PUSH1 0x20 DUP3 ADD SWAP1 POP DUP2 DUP2 SUB PUSH0 DUP4 ADD MSTORE PUSH2 0xA1C DUP2 PUSH2 0x9E3 JUMP JUMPDEST SWAP1 POP SWAP2 SWAP1 POP JUMP JUMPDEST PUSH32 0x63616E2774207769746864726177207A65726F2076616C756500000000000000 PUSH0 DUP3 ADD MSTORE POP JUMP JUMPDEST PUSH0 PUSH2 0xA57 PUSH1 0x19 DUP4 PUSH2 0x9AB JUMP JUMPDEST SWAP2 POP PUSH2 0xA62 DUP3 PUSH2 0xA23 JUMP JUMPDEST PUSH1 0x20 DUP3 ADD SWAP1 POP SWAP2 SWAP1 POP JUMP JUMPDEST PUSH0 PUSH1 0x20 DUP3 ADD SWAP1 POP DUP2 DUP2 SUB PUSH0 DUP4 ADD MSTORE PUSH2 0xA84 DUP2 PUSH2 0xA4B JUMP JUMPDEST SWAP1 POP SWAP2 SWAP1 POP JUMP JUMPDEST PUSH32 0x696E73756666696369656E742066756E64730000000000000000000000000000 PUSH0 DUP3 ADD MSTORE POP JUMP JUMPDEST PUSH0 PUSH2 0xABF PUSH1 0x12 DUP4 PUSH2 0x9AB JUMP JUMPDEST SWAP2 POP PUSH2 0xACA DUP3 PUSH2 0xA8B JUMP JUMPDEST PUSH1 0x20 DUP3 ADD SWAP1 POP SWAP2 SWAP1 POP JUMP JUMPDEST PUSH0 PUSH1 0x20 DUP3 ADD SWAP1 POP DUP2 DUP2 SUB PUSH0 DUP4 ADD MSTORE PUSH2 0xAEC DUP2 PUSH2 0xAB3 JUMP JUMPDEST SWAP1 POP SWAP2 SWAP1 POP JUMP JUMPDEST PUSH32 0x4E487B7100000000000000000000000000000000000000000000000000000000 PUSH0 MSTORE PUSH1 0x11 PUSH1 0x4 MSTORE PUSH1 0x24 PUSH0 REVERT JUMPDEST PUSH0 PUSH2 0xB2A DUP3 PUSH2 0x925 JUMP JUMPDEST SWAP2 POP PUSH2 0xB35 DUP4 PUSH2 0x925 JUMP JUMPDEST SWAP3 POP DUP3 DUP3 SUB SWAP1 POP DUP2 DUP2 GT ISZERO PUSH2 0xB4D JUMPI PUSH2 0xB4C PUSH2 0xAF3 JUMP JUMPDEST JUMPDEST SWAP3 SWAP2 POP POP JUMP JUMPDEST PUSH2 0xB5C DUP2 PUSH2 0x8BF JUMP JUMPDEST DUP3 MSTORE POP POP JUMP JUMPDEST PUSH0 PUSH1 0x40 DUP3 ADD SWAP1 POP PUSH2 0xB75 PUSH0 DUP4 ADD DUP6 PUSH2 0xB53 JUMP JUMPDEST PUSH2 0xB82 PUSH1 0x20 DUP4 ADD DUP5 PUSH2 0x92E JUMP JUMPDEST SWAP4 SWAP3 POP POP POP JUMP JUMPDEST PUSH0 DUP2 ISZERO ISZERO SWAP1 POP SWAP2 SWAP1 POP JUMP JUMPDEST PUSH2 0xB9D DUP2 PUSH2 0xB89 JUMP JUMPDEST DUP2 EQ PUSH2 0xBA7 JUMPI PUSH0 DUP1 REVERT JUMPDEST POP JUMP JUMPDEST PUSH0 DUP2 MLOAD SWAP1 POP PUSH2 0xBB8 DUP2 PUSH2 0xB94 JUMP JUMPDEST SWAP3 SWAP2 POP POP JUMP JUMPDEST PUSH0 PUSH1 0x20 DUP3 DUP5 SUB SLT ISZERO PUSH2 0xBD3 JUMPI PUSH2 0xBD2 PUSH2 0x89C JUMP JUMPDEST JUMPDEST PUSH0 PUSH2 0xBE0 DUP5 DUP3 DUP6 ADD PUSH2 0xBAA JUMP JUMPDEST SWAP2 POP POP SWAP3 SWAP2 POP POP JUMP JUMPDEST PUSH32 0x6661696C656420746F2077697468647261770000000000000000000000000000 PUSH0 DUP3 ADD MSTORE POP JUMP JUMPDEST PUSH0 PUSH2 0xC1D PUSH1 0x12 DUP4 PUSH2 0x9AB JUMP JUMPDEST SWAP2 POP PUSH2 0xC28 DUP3 PUSH2 0xBE9 JUMP JUMPDEST PUSH1 0x20 DUP3 ADD SWAP1 POP SWAP2 SWAP1 POP JUMP JUMPDEST PUSH0 PUSH1 0x20 DUP3 ADD SWAP1 POP DUP2 DUP2 SUB PUSH0 DUP4 ADD MSTORE PUSH2 0xC4A DUP2 PUSH2 0xC11 JUMP JUMPDEST SWAP1 POP SWAP2 SWAP1 POP JUMP JUMPDEST PUSH32 0x6E6F74206F776E65720000000000000000000000000000000000000000000000 PUSH0 DUP3 ADD MSTORE POP JUMP JUMPDEST PUSH0 PUSH2 0xC85 PUSH1 0x9 DUP4 PUSH2 0x9AB JUMP JUMPDEST SWAP2 POP PUSH2 0xC90 DUP3 PUSH2 0xC51 JUMP JUMPDEST PUSH1 0x20 DUP3 ADD SWAP1 POP SWAP2 SWAP1 POP JUMP JUMPDEST PUSH0 PUSH1 0x20 DUP3 ADD SWAP1 POP DUP2 DUP2 SUB PUSH0 DUP4 ADD MSTORE PUSH2 0xCB2 DUP2 PUSH2 0xC79 JUMP JUMPDEST SWAP1 POP SWAP2 SWAP1 POP JUMP JUMPDEST PUSH0 PUSH1 0x20 DUP3 ADD SWAP1 POP PUSH2 0xCCC PUSH0 DUP4 ADD DUP5 PUSH2 0xB53 JUMP JUMPDEST SWAP3 SWAP2 POP POP JUMP JUMPDEST PUSH0 DUP2 MLOAD SWAP1 POP PUSH2 0xCE0 DUP2 PUSH2 0x956 JUMP JUMPDEST SWAP3 SWAP2 POP POP JUMP JUMPDEST PUSH0 PUSH1 0x20 DUP3 DUP5 SUB SLT ISZERO PUSH2 0xCFB JUMPI PUSH2 0xCFA PUSH2 0x89C JUMP JUMPDEST JUMPDEST PUSH0 PUSH2 0xD08 DUP5 DUP3 DUP6 ADD PUSH2 0xCD2 JUMP JUMPDEST SWAP2 POP POP SWAP3 SWAP2 POP POP JUMP JUMPDEST PUSH32 0x63616E27742073617665207A65726F2076616C75650000000000000000000000 PUSH0 DUP3 ADD MSTORE POP JUMP JUMPDEST PUSH0 PUSH2 0xD45 PUSH1 0x15 DUP4 PUSH2 0x9AB JUMP JUMPDEST SWAP2 POP PUSH2 0xD50 DUP3 PUSH2 0xD11 JUMP JUMPDEST PUSH1 0x20 DUP3 ADD SWAP1 POP SWAP2 SWAP1 POP JUMP JUMPDEST PUSH0 PUSH1 0x20 DUP3 ADD SWAP1 POP DUP2 DUP2 SUB PUSH0 DUP4 ADD MSTORE PUSH2 0xD72 DUP2 PUSH2 0xD39 JUMP JUMPDEST SWAP1 POP SWAP2 SWAP1 POP JUMP JUMPDEST PUSH32 0x6E6F7420656E6F75676820746F6B656E00000000000000000000000000000000 PUSH0 DUP3 ADD MSTORE POP JUMP JUMPDEST PUSH0 PUSH2 0xDAD PUSH1 0x10 DUP4 PUSH2 0x9AB JUMP JUMPDEST SWAP2 POP PUSH2 0xDB8 DUP3 PUSH2 0xD79 JUMP JUMPDEST PUSH1 0x20 DUP3 ADD SWAP1 POP SWAP2 SWAP1 POP JUMP JUMPDEST PUSH0 PUSH1 0x20 DUP3 ADD SWAP1 POP DUP2 DUP2 SUB PUSH0 DUP4 ADD MSTORE PUSH2 0xDDA DUP2 PUSH2 0xDA1 JUMP JUMPDEST SWAP1 POP SWAP2 SWAP1 POP JUMP JUMPDEST PUSH0 PUSH1 0x60 DUP3 ADD SWAP1 POP PUSH2 0xDF4 PUSH0 DUP4 ADD DUP7 PUSH2 0xB53 JUMP JUMPDEST PUSH2 0xE01 PUSH1 0x20 DUP4 ADD DUP6 PUSH2 0xB53 JUMP JUMPDEST PUSH2 0xE0E PUSH1 0x40 DUP4 ADD DUP5 PUSH2 0x92E JUMP JUMPDEST SWAP5 SWAP4 POP POP POP POP JUMP JUMPDEST PUSH32 0x6661696C656420746F207472616E736665720000000000000000000000000000 PUSH0 DUP3 ADD MSTORE POP JUMP JUMPDEST PUSH0 PUSH2 0xE4A PUSH1 0x12 DUP4 PUSH2 0x9AB JUMP JUMPDEST SWAP2 POP PUSH2 0xE55 DUP3 PUSH2 0xE16 JUMP JUMPDEST PUSH1 0x20 DUP3 ADD SWAP1 POP SWAP2 SWAP1 POP JUMP JUMPDEST PUSH0 PUSH1 0x20 DUP3 ADD SWAP1 POP DUP2 DUP2 SUB PUSH0 DUP4 ADD MSTORE PUSH2 0xE77 DUP2 PUSH2 0xE3E JUMP JUMPDEST SWAP1 POP SWAP2 SWAP1 POP JUMP JUMPDEST PUSH0 PUSH2 0xE88 DUP3 PUSH2 0x925 JUMP JUMPDEST SWAP2 POP PUSH2 0xE93 DUP4 PUSH2 0x925 JUMP JUMPDEST SWAP3 POP DUP3 DUP3 ADD SWAP1 POP DUP1 DUP3 GT ISZERO PUSH2 0xEAB JUMPI PUSH2 0xEAA PUSH2 0xAF3 JUMP JUMPDEST JUMPDEST SWAP3 SWAP2 POP POP JUMP INVALID LOG2 PUSH5 0x6970667358 0x22 SLT KECCAK256 0xD7 0x4F 0xB4 EXTCODEHASH 0xC1 POP SWAP2 DUP4 LOG3 DUP10 0xCB CREATE PUSH15 0xCE637FD01694DC3B8DF87A5CEB22CB 0x4B 0xFB TSTORE CREATE2 PUSH5 0x736F6C6343 STOP ADDMOD XOR STOP CALLER "
				},
				"gasEstimates": {
					"creation": {
						"codeDepositCost": "763000",
						"executionCost": "infinite",
						"totalCost": "infinite"
					},
					"external": {
						"checkContractBalance()": "infinite",
						"checkUserBalance(address)": "2807",
						"deposit(uint256)": "infinite",
						"ownerWithdraw(uint256)": "infinite",
						"withdraw(uint256)": "infinite"
					}
				},
				"methodIdentifiers": {
					"checkContractBalance()": "50312c9e",
					"checkUserBalance(address)": "0a9bfef5",
					"deposit(uint256)": "b6b55f25",
					"ownerWithdraw(uint256)": "33f707d1",
					"withdraw(uint256)": "2e1a7d4d"
				}
			},
			"storageLayout": {
				"storage": [
					{
						"astId": 4,
						"contract": "contracts/Classwork.sol:SaveERC20",
						"label": "savingToken",
						"offset": 0,
						"slot": "0",
						"type": "t_address"
					},
					{
						"astId": 6,
						"contract": "contracts/Classwork.sol:SaveERC20",
						"label": "owner",
						"offset": 0,
						"slot": "1",
						"type": "t_address"
					},
					{
						"astId": 10,
						"contract": "contracts/Classwork.sol:SaveERC20",
						"label": "savings",
						"offset": 0,
						"slot": "2",
						"type": "t_mapping(t_address,t_uint256)"
					}
				],
				"types": {
					"t_address": {
						"encoding": "inplace",
						"label": "address",
						"numberOfBytes": "20"
					},
					"t_mapping(t_address,t_uint256)": {
						"encoding": "mapping",
						"key": "t_address",
						"label": "mapping(address => uint256)",
						"numberOfBytes": "32",
						"value": "t_uint256"
					},
					"t_uint256": {
						"encoding": "inplace",
						"label": "uint256",
						"numberOfBytes": "32"
					}
				}
			},
			"userdoc": {
				"kind": "user",
				"methods": {},
				"version": 1
			}
		}
	}
}